:020000040800F2
:1000000088710024A5030008DD920008918800088B
:10001000BD910008DF070008C1AF00080000000024
:10002000000000000000000000000000E5020008E1
:10003000411E000800000000410300084B9C00081E
:10004000C3030008C3030008C3030008C303000878
:10005000C3030008C3030008C3030008C303000868
:10006000C3030008C3030008C3030008C303000858
:10007000C3030008FD1100080D120008C3030008A7
:10008000C3030008C3030008C30300086D1E000873
:100090007D1E0008C3030008C3030008C303000853
:1000A000C3030008C3030008C3030008C303000818
:1000B000C3030008C3030008259E0008C30300080B
:1000C000C3030008C3030008C3030008C3030008F8
:1000D000C3030008C3030008C3030008C3030008E8
:1000E000C3030008C303000800000000C3030008A6
:1000F000759E0008C3030008C3030008C30300087B
:10010000C3030008C30300084D9E0008C303000892
:10011000C303000875A30008C3030008C303000855
:10012000C3030008C3030008C3030008C303000897
:10013000C3030008C3030008C3030008C303000887
:1001400000000000000000000000000000000000AF
:10015000C3030008C3030008C3030008C303000867
:10016000C3030008C3030008C3030008C303000857
:10017000C3030008C3030008C30300080000000015
:10018000C3030008C3030008A9A30008B9A300081B
:10019000C3030008C3030008C3030008C303000827
:1001A000C3030008C3030008C303000800000000E5
:1001B000C3030008C3030008C3030008C303000807
:1001C000C3030008C3030008000000000000000093
:1001D0000000000000000000C30300080000000051
:1001E000000000000000000000000000000000000F
:1001F0000000000000000000C3030008C303000863
:10020000C3030008C303000800000000C303000884
:10021000C3030008C3030008C3030008C3030008A6
:10022000C303000800000000C30300080000000032
:10023000C3030008C303000800000000C303000854
:10024000C3030008C3030008C3030008C303000876
:10025000C3030008C3030008C3030008C303000866
:10026000C3030008C3030008C3030008C303000856
:10027000C3030008C3030008C30300080000000014
:10028000C3030008C3030008C3030008C303000836
:1002900000000000C3030008C303000800000000C2
:1002A00000000000C3030008C3030008C3030008E4
:1002B000C3030008C3030008C30300088D1E000821
:1002C000C3030008C3030008C3030008DFF810D00D
:1002D00000F036F90048004749BF0008AFF300803E
:1002E000887100242C4B19680868B0E8F04F80F33F
:1002F0000988BFF36F8F4FF0000080F311887047BB
:100300000000000008480068006880F308884FF08B
:10031000000080F3148862B661B6BFF34F8FBFF35D
:100320006F8F00DF00BF00BF08ED00E0DFF80C00BA
:10033000016841F470010160704700BF88ED00E082
:10034000EFF30980BFF36F8F134B1A681EF0100F85
:1003500008BF20ED108A20E9F04F106009B44FF07B
:10036000500080F31188BFF34F8FBFF36F8F0DF0F4
:1003700077F94FF0000080F3118809BC196808680C
:10038000B0E8F04F1EF0100F08BFB0EC108A80F3F9
:100390000988BFF36F8F704724000024EFF30580B6
:1003A00070470000074880470748804707480047D4
:1003B000FEE7FEE7FEE7FEE7FEE7FEE7FEE7FEE715
:1003C000FEE7FEE7491E0008199D0008CD0200085F
:1003D0002DE9F05F0546002092469B46884606467A
:1003E000814640241BE0284641464746224600F00D
:1003F00053F853465A46C01A914110D31146184635
:10040000224600F03AF82D1A67EB01084F462246C3
:100410000120002100F031F817EB00094E41201EA9
:10042000A4F10104DFDC484631462A464346BDE8D4
:10043000F09F40EA01039B0703D009E008C9121F9F
:1004400008C0042AFAD203E011F8013B00F8013B8E
:10045000521EF9D27047D2B201E000F8012B491EBA
:10046000FBD270470022F6E710B513460A46044651
:100470001946FFF7F0FF204610BD202A04DB203A82
:1004800000FA02F1002070479140C2F1200320FAE7
:1004900003F3194390407047202A04DB203A21FAE5
:1004A00002F00021704721FA02F3D040C2F120028D
:1004B00091400843194670472DE9FE4FC3F30A5790
:1004C00001F000450024C1F30A56C3F31303C1F33E
:1004D000130143F4801312EB020AA64641F4801183
:1004E000009543EB030CA7F1010B16E0B0EB0A00FB
:1004F00061EB0C01071E71F1000707DA4FF00008ED
:10050000D0EB080085F0004568EB0101171A73EB8A
:100510000107EBD3761E001849415E45F6DA50EA32
:10052000010209D0CDE900E500221346029600F051
:1005300028F803B0BDE8F08F20460099F9E70000E5
:10054000064C074D06E0E06840F0010394E8070020
:1005500098471034AC42F6D3FFF7BCFE9CE5000888
:10056000BCE5000810B5141E73F1000408DA401C45
:1005700041F1000192185B411A4301D120F00100C2
:1005800010BD2DE9F04D92469B4611B1B1FA81F2B2
:1005900002E0B0FA80F220329046FFF76EFF044688
:1005A0000F4640EA0A0041EA0B0153465A46084307
:1005B00013D0114653EA010019D0C8F14002504649
:1005C000FFF76AFF05460E46504659464246FFF77A
:1005D00054FF084305D0012004E020463946BDE819
:1005E000F08D0020054346EAE0762C4337430A9815
:1005F0006305E40AA0EB08000022FD0A44EA475420
:100600000A3002D500200146E9E7010510196941C9
:10061000DDE9084500196941BDE8F04DA2E770B574
:100620008C1810F8015B15F0070301D110F8013B9D
:100630002A1106D110F8012B03E010F8016B01F824
:10064000016B5B1EF9D12B0705D40023521E0DD47C
:1006500001F8013BFAE710F8013BCB1A921C03E0CA
:1006600013F8015B01F8015B521EF9D5A142D8D302
:10067000002070BD00B599B00020119012900220AA
:1006800013900120149000201590169011A93A485B
:1006900003F037FD08B101F0D4FB0020034602222D
:1006A00011460090344803F080FD08B101F0C9FB09
:1006B00000220121304803F087FC08B101F0C1FBA2
:1006C0002D4804F0AEFB08B101F0BBFB00200990FF
:1006D0000A9002200B9001200C9000200D900E90AB
:1006E00009A9264803F00DFD08B101F0AAFB00207E
:1006F0000346022211460090204803F056FD08B13F
:1007000001F09FFB002201211C4803F05DFC08B1B1
:1007100001F097FB194804F084FB08B101F091FB4C
:1007200000200190029002200390012004900020FC
:100730000590069001A9124803F0E3FC08B101F00E
:1007400080FB002003460222114600900C4803F073
:100750002CFD08B101F075FB00220121084803F0CF
:1007600033FC08B101F06DFB054804F05AFB08B1F9
:1007700001F067FB19B000BD04020024A4020024AC
:100780004403002410B50820094909680862084894
:100790000068406A40220749054807F0FDFE04480A
:1007A0000068006840F0100001490968086010BD49
:1007B000C804002428660024002141600121417002
:1007C000704701464878704701214170002141601F
:1007D000704702214170704701214170704700BF8E
:1007E000FEE7000010B504460020F8490870F848FC
:1007F000C07C012822D19FEDF70AF74880ED000A5E
:100800009FEDF60A80ED010A9FEDF20A80ED020AE3
:100810009FEDF20A80ED030A9FEDF10AF14880EDA9
:10082000000A9FEDEF0A80ED010A9FEDED0A80EDD1
:10083000020A9FEDEB0A80ED030AE3E2E44890F937
:10084000170010F1080F2BDDE14890F91700082878
:1008500026DADF4890F9160010F1080F20DDDC4899
:1008600090F9160008281BDAD94890F9150010F104
:10087000080F15DDD64890F91500082810DA9FED0D
:10088000D80A84ED180A9FEDD60A84ED190A9FED67
:10089000D40A84ED1A0A9FEDD20A84ED1B0AB1E254
:1008A000CB49087DDFEDD00A9FEDCD0AC82200219B
:1008B0000CF09EFBCD4880ED000AC54991F9170068
:1008C000B7EE001ADFEDC60ABFEE000A642300226D
:1008D00059420CF0F1FAC64880ED000ABC4991F982
:1008E0001600B7EE001ADFEDBE0ABFEE000A642361
:1008F000002259420CF0E0FABE4880ED000AB449EB
:1009000091F915009FEDBC1ADFEDB50A9FEDBB0A0A
:100910006423002259420CF0CFFAB1EE400AB848E5
:1009200080ED000AAA48807C01280DD1B04890EDE6
:10093000000AB1EE400A80ED000AAE4890ED000AD0
:10094000B1EE400A80ED000AA84890ED000A84ED5F
:10095000170AA74890ED000A84ED140AA54890ED07
:10096000000A84ED150AA64890ED000A84ED160AE7
:100970009F4890ED001AA248D0ED001A9FEDA12AE1
:1009800001EEC21AF0EE410A9A4890ED001A9C4816
:10099000D0ED001A9FED9B2A01EE821AB0EE410ABB
:1009A0000AF094FB984880ED000A914890ED001AF7
:1009B0009348D0ED001A9FED932A01EEC21AF0EE93
:1009C000410A8C4890ED001A8D48D0ED001A9FED39
:1009D0008F2A01EE821AB0EE410A0AF077FB8A48AC
:1009E00080ED010A824890ED001A8548D0ED001A8A
:1009F0009FED862A01EEC21AF0EE410A7D4890ED85
:100A0000001A7F48D0ED001A9FED802A01EE821A6D
:100A1000B0EE410A0AF05AFB7B4880ED020A7448A6
:100A200090ED001A7648D0ED001A9FED782A01EE7D
:100A3000C21AF0EE410A6F4890ED001A7048D0EDEE
:100A4000001A9FED702A01EE821AB0EE410A0AF0F8
:100A50003DFB6D4880ED030A6548D0ED000A68480B
:100A600090ED001ADFED671A41EE610A60EEA00A10
:100A7000604890ED001A6248D0ED001A9FED612A9F
:100A800001EE821A5B48D0ED001A5D4890ED002A15
:100A9000DFED5C2A42EE221A41EE210AB0EE600A36
:100AA0000AF0ECFCB1EE400ADFED590A80EE201AA4
:100AB000584880ED001A4E48D0ED000A504890ED9D
:100AC000001ADFED501A41EE610A60EEA01A4948A3
:100AD00090ED001A4A48D0ED000A9FED4C2A00EE36
:100AE000821A4448D0ED000A454890ED002ADFED17
:100AF000472A42EE220A41EE201AB0EE610A0AF0BD
:100B0000BDFCB1EE400ADFED420A80EE201A4148FA
:100B100080ED011A3648D0ED000A394890ED001AF0
:100B2000DFED3A1A41EE610A60EEA00A314890ED1D
:100B3000001A3348D0ED001A9FED342A01EE821AD4
:100B40002C48D0ED001A2E4890ED002ADFED2F2A18
:100B500042EE221A41EE210AB0EE600A0AF08EFC43
:100B6000DFED2B0A80EE201A2A4880ED021A204879
:100B7000D0ED000A224890ED001ADFED241A41EE74
:100B8000610A60EEA01A1B48D0ED000A1C4890EDE7
:100B9000001A9FED1C2A41EE020A164890ED001A39
:100BA000174890ED002ADFED172A02EE221A40EED8
:100BB000811AB0EE610A0AF061FCDFED150A80EEE1
:100BC000201A144880ED031A002018E1C400002404
:100BD00066010024C3F548BFEC5B0024C3F5483F21
:100BE00000000000BC5B002400002042C80000247C
:100BF000CC000024D00000246666E63F6666E6BFAF
:100C0000D400002439B4C83EAC5B002439B4C8BE5B
:100C100068916D3DDC5B00247B4901EB800191ED27
:100C2000000A7A4901EB8001D1ED000A30EE600A3A
:100C3000774901EB800181ED000A0DE0744901EB79
:100C4000800191ED000ADFED730A30EE200A704951
:100C500001EB800181ED000A6D4901EB800191ED0E
:100C6000000ADFED6D0AB4EEE00AF1EE10FAE5D30A
:100C70000DE0674901EB800191ED000ADFED650AA7
:100C800030EE600A624901EB800181ED000A6049A3
:100C900001EB800191ED000ADFED600AB4EEE00A9D
:100CA000F1EE10FAE5DC5A4901EB800191ED000A02
:100CB000DFED5B0AB4EEE00AF1EE10FA21DD5349F4
:100CC00001EB800191ED000A514901EB8001D1ED6A
:100CD000000A30EE200ADFED510A30EE600A514979
:100CE00001EB800181ED000A4F4901EB800191ED9C
:100CF000000AB1EE400A4C4901EB800181ED000A87
:100D000056E0434901EB800191ED000ADFED470A0F
:100D1000B4EEE00AF1EE10FA21D23C4901EB800179
:100D200091ED000A3A4901EB8001D1ED000A30EE65
:100D3000200ADFED3A0A30EE200A3A4901EB800141
:100D400081ED000A384901EB800191ED000AB1EE16
:100D5000400A354901EB800181ED000A28E02C4969
:100D600001EB800191ED000ADFED300AB4EEE00AFC
:100D7000F1EE10FA1CDB264901EB800191ED000A2F
:100D8000DFED270AB4EEE00AF1EE10FA10D81F49A1
:100D900001EB800191ED000A1D4901EB8001D1EDCD
:100DA000000A30EE200A1F4901EB800181ED000AA4
:100DB0001C4901EB800191ED000A144901EB80010F
:100DC00081ED000A174901EB800191ED000AB1EEB7
:100DD000400A144901EB800181ED000A124901EB40
:100DE000800191ED000A1249D1ED000A20EE200A9F
:100DF00004F1600101EB800181ED000A401C042830
:100E0000FFF60AAF10BD0000AC5B0024BC5B002401
:100E1000CC5B0024DA0FC940DA0F49C0DA0F494031
:100E2000DA0FC93FEC5B0024DC5B0024DA0FC9BF9A
:100E3000C80000241FB50021534808F091FE524815
:100E40008168884702200421504B1022CDE9001010
:100E500001214F4800F008FE022004214B4B1022D4
:100E6000CDE9001001464B4800F0FEFD02200421B0
:100E7000464B1022CDE900100321474800F0F4FD55
:100E800002200421414B1022CDE90010434800F01C
:100E9000EBFD434801210022CDE90012414B40F215
:100EA0000122CDE9021049023F4800F01DF93F48F8
:100EB00001210022CDE900123A4B40F20222CDE995
:100EC000021049023A4800F00FF93A480121002285
:100ED000CDE90012334B40F20322CDE90210490262
:100EE000354800F001F9354801210022CDE9001212
:100EF0002C4B4FF40172CDE902104902304800F04A
:100F0000F3F821482249426C90471F482149426C1E
:100F100090471D482049426C90471B481F49426C2E
:100F2000904719482049426C904717482049426C25
:100F3000904715482049426C904713482049426C1D
:100F4000904713480021D0F8F82090470A2003F07A
:100F500027F810480021D0F8F82090470A2003F025
:100F60001FF80D480021D0F8F82090470A2003F020
:100F700017F80A480021D0F8F82090471148024994
:100F80000867114888671FBDA05000240402002490
:100F90001C510024245200242C53002434540024D7
:100FA000D8000024A40200243C550024F0000024B2
:100FB000D85600240801002474580024200100247D
:100FC000105A0024E50700085DBA00082DE9F04139
:100FD0000446002500260020186000BF23E004F12D
:100FE00018073F5C012F08D1471CAC4605F10108EA
:100FF00008F0FF0541F82C7014E004F118073F5C7D
:10100000022F08D1471CB44606F1010808F0FF067C
:1010100042F82C7006E004F118073F5C032F01D161
:10102000471C1F60401C0C28D9DBBDE8F0814A78C2
:101030000B7842EA0322A0F86C21B0F86C21A0F8EA
:1010400070217047027F5AB1012A05D0022A02D0CE
:10105000052A46D100BF00BF8A7980F86A2100BF07
:1010600000F5B270028942814A780B7842EA032285
:101070000281CA788B7842EA032212B202804A794E
:101080000B7942EA032212B26FF0040392FBF3F2EF
:1010900012B2428002894389A0F5B270D21AB2F529
:1010A000805F05DDD0F87421521EC0F874210CE079
:1010B000B0F86C21B0F86E31D21A12F5805F04DA04
:1010C000D0F87421521CC0F87421B0F86C31D0F8FB
:1010D000742103EB4232B0F87031D21AC0F8782193
:1010E00000E000BF00BF70472DE9F84F04468B4673
:1010F00015461E460AAF97E88007E9B23B463246DE
:101100002046CDF8008008F05BF804F5B07424F8B0
:10111000A05C1B4860631B48A0631B482063002041
:10112000A080E0802081A072A081E08120826061A7
:10113000A06120772085E062A4F5B074002104F559
:10114000BF70C4F87E11C4F88211A4F88611607FC4
:1011500058B1012802D002280FD10DE0524649466D
:1011600004F58A7008F0EEF807E05246494604F1AB
:10117000C40008F0E7F800E000BF00BFBDE8F88F4A
:10118000451000082F100008499200082DE9F0438F
:101190008BB081460E4614461D46DDE91278029654
:1011A00000200390049008200590002006900790EE
:1011B000089009900A90200A8DF80000E0B28DF89E
:1011C0000100280A8DF80200E8B28DF80300380A01
:1011D0008DF80400F8B28DF805004FEA18208DF85C
:1011E000060008F0FF008DF807006A4602A948468D
:1011F00002F03EFF0BB0BDE8F083000010B50248DE
:1012000001F0D8FC10BD00008406002410B502488F
:1012100001F0D0FC10BD0000FC0600240146374A56
:101220000868904249D0354A18320868904244D044
:10123000324A3032086890423FD0304A483208681B
:1012400090423AD02D4A60320868904235D02B4AFD
:1012500078320868904230D0284A9032086890422C
:101260002BD0264AA8320868904226D0244A086823
:10127000904222D0224A1832086890421DD0204A5B
:1012800030320868904218D01D4A483208689042AF
:1012900013D01B4A6032086890420ED0184A783248
:1012A0000868904209D0164A90320868904204D0EB
:1012B000134AA8320868904201D1012000E00020C2
:1012C000B0B10A78103A1823B2FBF3F000F007022D
:1012D0000C4B9A5CCA65032805D90A686FF30902AA
:1012E000121D8A6503E00A686FF309028A6503E04C
:1012F000086820F0FF008865886D70471000024084
:1013000010040240D4E4000810B502682B4C0368B6
:10131000A34222D0294C14340368A3421DD0274C89
:1013200028340368A34218D0244C3C340368A342F9
:1013300013D0224C50340368A3420ED01F4C6434A7
:101340000368A34209D01D4C78340368A34204D03B
:101350001A4C8C340368A34201D1012300E000231E
:101360008BB10378083B1424B3FBF4F1144B03EB6B
:1013700081030366124B8033436601F01F0401238F
:10138000A340836618E00378103B1824B3FBF4F104
:101390000C4B9A4204D80B4BA83B9A4200D308311D
:1013A000094B03EB81030366074B8033436601F06F
:1013B0001F040123A340836610BD00000854025897
:1013C00000580258B8040240000802400179A9B34D
:1013D000082940D8204B02689A4222D01E4B143371
:1013E00002689A421DD01C4B283302689A4218D0DA
:1013F000194B3C3302689A4213D0174B50330268A2
:101400009A420ED0144B643302689A4209D0124BB0
:10141000783302689A4204D00F4B8C3302689A42A8
:1014200001D1012200E000224AB14A1E0B4B03EB1E
:101430008202C266094A4032026708E00BE04A1E97
:10144000074B03EB8202C266054A403202674A1E1E
:1014500001239340436770470854025800590258CB
:1014600000090240014600208A69D2B98A6A32B175
:10147000012A0DD0022A03D0032A10D10EE000BFAA
:10148000CA6A02F08072B2F1807F00D1012007E0C9
:10149000CA6AB2F1C07F00D1012001E000E000BFC4
:1014A00036E08A69B2F5005F1BD18A6A32B1012A3F
:1014B00007D0022A03D0032A11D10AE000BF01207D
:1014C0000EE0CA6A02F08072B2F1807F00D1012082
:1014D00006E0CA6AB2F1C07F00D1012000E000BF7F
:1014E00016E08A6A32B1012A05D0022A04D0032A02
:1014F0000CD103E000BF00BF012008E0CA6A02F07F
:101500008072B2F1807F00D1012000E000BF00BFF7
:1015100070470000F0B5856D846D984F0668BE4237
:1015200070D0964F18370668BE426BD0934F303755
:101530000668BE4266D0914F48370668BE4261D009
:101540008E4F60370668BE425CD08C4F7837066895
:10155000BE4257D0894F90370668BE4252D0874F5F
:10156000A8370668BE424DD0854F0668BE4249D0B6
:10157000834F18370668BE4244D0814F3037066823
:10158000BE423FD07E4F48370668BE423AD07C4FBD
:1015900060370668BE4235D0794F78370668BE425C
:1015A00030D0774F90370668BE422BD0744FA837A3
:1015B0000668BE4226D0734F0668BE4222D0714FE5
:1015C00014370668BE421DD06E4F28370668BE42EB
:1015D00018D06C4F3C370668BE4213D0694F503765
:1015E0000668BE420ED0674F64370668BE4209D017
:1015F000644F78370668BE4204D0624F8C37066865
:10160000BE4201D1012600E000263EB1D0E91976A4
:101610007E60C66E16B1D0E91C767E60574F0668B4
:10162000BE4249D0554F18370668BE4244D0534F8A
:1016300030370668BE423FD0504F48370668BE423A
:101640003AD04E4F60370668BE4235D04B4F7837A0
:101650000668BE4230D0494F90370668BE422BD054
:10166000464FA8370668BE4226D0454F0668BE42A0
:1016700022D0434F18370668BE421DD0404F303746
:101680000668BE4218D03E4F48370668BE4213D0A7
:101690003B4F60370668BE420ED0394F7837066838
:1016A000BE4209D0364F90370668BE4204D0344F50
:1016B000A8370668BE4201D1012600E00026DEB14F
:1016C00090F85C6006F01F073F26BE40AE600668DB
:1016D000366826F4802607683E6006687360866870
:1016E000402E04D10668B2600668F16044E00668E6
:1016F000B1600668F2603FE0224F0668BE4222D029
:10170000204F14370668BE421DD01E4F283706688A
:10171000BE4218D01B4F3C370668BE4213D0194F4B
:1017200050370668BE420ED0164F64370668BE4278
:1017300009D0144F78370668BE4204D0114F8C3759
:101740000668BE4201D1012600E00026A6B190F84D
:101750005C6006F01F070126BE4066600668736085
:101760008668402E04D10668B2600668F16003E026
:101770000668B1600668F260F0BD0000100002402B
:10178000100402400854025830B58BB004460D4690
:10179000A07F029000200390049008200590002074
:1017A00006900790089009900A90FF208DF800009D
:1017B0008DF801008DF802008DF803008DF804000B
:1017C0008DF805008DF8060035B1012D0BD0022DE6
:1017D00010D0032D16D111E0FC208DF80700012058
:1017E00084F8C4000FE0FD208DF80700002084F885
:1017F000C40008E0FE208DF8070004E0FB208DF80F
:10180000070000E000BF00BF6A4602A904F1200003
:1018100002F02EFC0BB030BD2DE9F0412DED048B14
:1018200004460D46A878697840EA0126E878000168
:10183000297940EA21176879297901F00F0140EAF6
:101840000128B2EE090AB0EE408AB3EE0E0AF0EEBD
:10185000408AB2EE040AB0EE409A207F001F0828AA
:1018600053D2DFE800F0115252041E2B3845B2EE7D
:10187000090AB0EE408AB3EE0E0AF0EE408AB2EEEC
:10188000040AB0EE409A41E09FED6E0AB0EE408A45
:101890009FED6D0AF0EE408AB2EE040AB0EE409A77
:1018A00034E09FED690AB0EE408AB3EE0E0AF0EE26
:1018B000408AB2EE040AB0EE409A27E09FED630A38
:1018C000B0EE408AB3EE0E0AF0EE408AB2EE040AA1
:1018D000B0EE409A1AE0B2EE090AB0EE408AB3EEDA
:1018E0000E0AF0EE408AB2EE0E0AB0EE409A0DE01B
:1018F000B3EE090AB0EE408AB3EE0E0AF0EE408A6B
:10190000B2EE0E0AB0EE409A00E000BF00BF2878A9
:10191000001104F8C40F94ED010A84ED020A1021AD
:10192000F0EE480AB1EE480A30460BF017FC84EDA1
:10193000010A0C21F0EE680AB1EE680A38460BF095
:101940000DFC84ED040A0C21F0EE490AB1EE490ABF
:1019500040460BF003FC84ED050AA87900EE100A5E
:10196000B8EE400ABCEEC00A10EE100A2076E87904
:1019700000EE100AB8EE400ABCEEC00A10EE100AE3
:10198000607694ED010AD4ED020AC43C30EE600AA0
:10199000DFED2F0AB4EEE00AF1EE10FA05DDD4F81F
:1019A000E000001FC4F8E00011E094ED320AD4ED2D
:1019B000330A30EE600ADFED270AB4EEE00AF1EEFA
:1019C00010FA04D2D4F8E000001DC4F8E00094ED51
:1019D000321AB7EEC11AB0EE410B9FED1F1B09F092
:1019E000CFFCB7EEC00B84ED340A94ED340ADFED82
:1019F0001C0AB4EEE00AF1EE10FA08DD94ED340AA8
:101A0000DFED130A30EE600A84ED340A10E094ED45
:101A1000340ADFED140AB4EEE00AF1EE10FA07D250
:101A200094ED340ADFED0A0A30EE200A84ED340A20
:101A300094F8C40010B9012084F8C400BDEC048BF4
:101A4000BDE8F081CDCC16420000344200008C424B
:101A5000D00FC940D00FC9C000000000FA211940C2
:101A6000D00F4940D00F49C02DE9F84304460D4638
:101A700016461F46DDE90889E9B243463A46204644
:101A8000CDF8009007F09CFBC43466700F4860638B
:101A90000F48E0630F4820640F48A0639FED0F0AD2
:101AA00084ED010A9FED0D0A84ED020A9FED0B0AF9
:101AB00084ED030A9FED090A84ED040A9FED070AED
:101AC00084ED050AC43CBDE8F883000089170008CE
:101AD000E11A0008D91D00081918000800000000CC
:101AE0002DE9F0432DED068B8BB00546B0EE40AAF4
:101AF000B0EE608AF0EE418AB0EE619AF0EE429A62
:101B0000A87F0290002003900490082005900020F8
:101B100006900790089009900A90287F001F0828D7
:101B200066D2DFE800F0056504152535455500BF90
:101B30009FEDA10AA14880ED000A9FEDA10AA148EE
:101B400080ED000AB2EE040A9F4880ED000A50E0E2
:101B5000B2EE090A994880ED000AB3EE0E0A9948E0
:101B600080ED000AB2EE040A974880ED000A40E0DA
:101B70009FED930A914880ED000AB3EE0E0A91485A
:101B800080ED000AB2EE040A8F4880ED000A30E0D2
:101B90009FED8E0A894880ED000AB3EE0E0A89484F
:101BA00080ED000AB2EE040A874880ED000A20E0CA
:101BB000B2EE090A814880ED000AB3EE0E0A8148B0
:101BC00080ED000AB2EE0E0A7F4880ED000A10E0B8
:101BD000B3EE090A794880ED000AB3EE0E0A79489F
:101BE00080ED000AB2EE0E0A774880ED000A00E0B0
:101BF00000BF00BF687FE8B3012802D0022838D1B7
:101C00006FE010206D4991ED001A91ED000AF1EEA0
:101C1000400AB0EE4A0A0AF07DF906460C206949EE
:101C200091ED001A91ED000AF1EE400AB0EE480A7B
:101C30000AF070F907460C209FED651ADFED640A83
:101C4000B0EE690A0AF066F980460C209FED611A31
:101C5000DFED5F0AB0EE680A0AF05CF981460C20FD
:101C6000B1EE041ADFED5A0AB0EE490A0AF052F951
:101C7000044672E0FFE710209FED551ADFED540A8D
:101C80009FED530A0AF046F906460C204D4991EDA6
:101C9000001A91ED000AF1EE400AB0EE480A0AF08F
:101CA00039F907460C209FED4A1ADFED490A9FEDEE
:101CB000480A0AF02FF980460C209FED451ADFED07
:101CC000440A9FED430A0AF025F981460C20B1EE43
:101CD000041ADFED3F0AB0EE490A0AF01BF9044688
:101CE0003BE01020354991ED001A91ED000AF1EE2C
:101CF000400AB0EE4A0A0AF00DF906460C203149B6
:101D000091ED001A91ED000AF1EE400AB0EE480A9A
:101D10000AF000F907460C202B4991ED001A91EDCD
:101D2000000AF1EE400AB0EE690A0AF0F3F88046C4
:101D30000C209FED281ADFED260AB0EE680A0AF0A3
:101D4000E9F881460C20B1EE041ADFED210AB0EE6D
:101D5000490A0AF0DFF8044600BF00BF30128DF8D0
:101D60000000F0B28DF80100C7F307108DF80200F3
:101D70003807000E40EA29208DF8030009F0FF0023
:101D80008DF80400C4F307108DF805002007000E3D
:101D900040EA28208DF8060008F0FF008DF80700C3
:101DA0006A4602A905F1200002F062F90BB0BDEC11
:101DB000068BBDE8F0830000CDCC1642B8000024AD
:101DC00000003442BC000024C000002400008C420B
:101DD000000000000000FA4371B52DED020B8BB03E
:101DE00006460BAC0CADB07F02900020039004902F
:101DF00008200590002006900790089009900A900E
:101E000020788DF8000060788DF80100A0788DF8BA
:101E10000200E0788DF8030028788DF804006878D7
:101E20008DF80500A8788DF80600E8788DF8070091
:101E30006A4602A906F1200002F01AF90EB070BD40
:101E4000704772B600BFFEE70748006840F0020026
:101E50000549086000BF04480838006800F40050D5
:101E60000028F8D0704700000C48025810B502480E
:101E700002F0B4FA10BD00000402002410B50248BC
:101E800002F0ACFA10BD0000A402002410B5024814
:101E900002F0A4FA10BD00004403002410B501466E
:101EA0004A6B0868D0F884004FF6FC74A04340EAFF
:101EB00082000C68C4F884000868D0F8840020F41C
:101EC0007F04088F44EA00400C68C4F88400886BE3
:101ED00002440868D0F888004FF6FC74A04340EA3A
:101EE00082000C68C4F888000868D0F8880020F4E4
:101EF000FE04888F44EA00400C68C4F88800C86B70
:101F000002EB40020868D0F8A0004FF6FC74A04332
:101F100040EA82000C68C4F8A0000868D0F8A0006D
:101F200020F4FE044020405A44EA00400C68C4F803
:101F3000A000D1E9104004FB00220868D0F8B000EE
:101F40004FF6FC74A04340EA82000C68C4F8B0006D
:101F50000868D0F8B00020F4FE04B1F8480044EA64
:101F600000400C68C4F8B000D1E9124004FB002224
:101F70000868D0F8AC004FF6FC74A04340EA820039
:101F80000C68C4F8AC00D1E9144004FB00220868D6
:101F9000D0F8F0004FF6FC74A04340EA82000C68D1
:101FA000C4F8F0000868D0F8F00020F47C14B1F810
:101FB000580044EA00400C68C4F8F000886D02EB59
:101FC00040020868D0F8C0004FF6FC74A04340EA15
:101FD00082000C68C4F8C0000868D0F8C00020F483
:101FE0007C14B1F85C0044EA00400C68C4F8C000FE
:101FF0000868D0F8C00020F07C5491F8600044EAF2
:1020000000600C68C4F8C0002A4C486B04EB8000E8
:10201000C866CC6E886B04EB80040C670C6FC86BD1
:1020200004EBC0044C67D1E9100460434C6F04EB2F
:1020300080048C67D1E9120460438C6F04EB800448
:10204000CC67D1E914046043CC6F04EB800480209A
:1020500044504458886D04EBC004842044508C6E76
:10206000C86D60438424645804EB80048820445085
:102070008C6E086E60438824645804EB80049020C2
:10208000445040580C4CA04209D99831486840F05F
:1020900020004860032001F89809012010BDCB6E94
:1020A00002E0002018601B1D902040589842F8D88C
:1020B0000020F3E700AC0040FCD300402DE9F041E4
:1020C000054614461E46D1F804C0BCF1000F0AD1E3
:1020D000D1F810C0D1F808804CEA080CB1F80080A3
:1020E0004CEA88430BE0D1F810C04CF0804CD1F89A
:1020F00008804CEA080CD1F800804CEA080391F8FB
:102100002080D1F81CC04CEA086CD1F818804CEA49
:10211000080CD1F814804CEA080CB1F80C804CEA99
:102120000847D5F868C00CFB06FCD5F8848008EB9E
:102130008C021360121D1760121D002019E000F1BF
:10214000030C14F80CC04FEA0C6800F1020C14F8F0
:102150000CC048EA0C4800F1010C14F80CC048EA25
:102160000C2C14F800804CEA080CC2F800C0121DB8
:10217000001DDFF81480D1F80CC018F80CC084459D
:10218000DDD8BDE8F0810000DCE4000800BF634852
:10219000407A012809D16148C07A30B95F48807916
:1021A00018B901200BF07CF9B3E05D4949780129A9
:1021B00043D15B49087800EBD0714910A0EB410195
:1021C000D1BB4FF4AF60574909684863BAEE040ABF
:1021D000554880ED000A9FED550A80ED010AB7EEE3
:1021E000000A80ED020A9FED520A80ED030A9FED7E
:1021F0004F0A80ED040A4FF448700BF051F94D4836
:102200009FED4A2ADFED4C1AB7EE001ADFED470AC0
:10221000BAEE040AD0F800118847C8200BF040F944
:102220004FF416703F490968C86340000BF038F955
:1022300000203B4948706CE0FFE7394949780129A3
:1022400067D13749087800EBD0714910A0EB410104
:1022500001295ED1BAEE040A334880ED000A9FEDF1
:10226000330A80ED010AB7EE000A80ED020A9FED05
:10227000300A80ED030A9FED2D0A80ED040A2D48F7
:102280009FED2A2ADFED2C1AB7EE001ADFED270AA0
:10229000BAEE040AD0F8001188474FF448700BF0EA
:1022A000FFF840F6C4101F490968C8634FF4E160A5
:1022B0000BF0F6F89FED1D0A1B4880ED000AB0EE0A
:1022C000040A80ED010A9FED190A80ED020A9FEDD4
:1022D0001A0A80ED030A9FED150A80ED040A1548DD
:1022E0009FED122AF6EE001A9FED101ADFED130A89
:1022F0009FED0E0AD0F80011884740F24C400BF0D9
:10230000CFF84FF4C86007490968486300200449C2
:102310004870052009F078FE39E7000066010024C6
:1023200058010024E4030024146600240000000087
:102330009A99193FBC640024CDCCCC3E9A9919409F
:102340002DE9F041044602F08FFE804614B90120C9
:10235000BDE8F08194F83500022808D0802060653F
:1023600000BF002084F8340000BF0120F0E7FE49E0
:102370002068884249D0FC4918312068884244D0FE
:10238000F9493031206888423FD0F7494831206808
:1023900088423AD0F44960312068884235D0F24909
:1023A00078312068884230D0EF49903120688842E7
:1023B0002BD0ED49A8312068884226D0EB4920680F
:1023C000884222D0E9491831206888421DD0E74967
:1023D00030312068884218D0E4494831206888426A
:1023E00013D0E2496031206888420ED0DF4978314D
:1023F0002068884209D0DD4990312068884204D0A5
:10240000DA49A8312068884201D1012000E000208B
:1024100068B12068006820F01E002168086020680C
:10242000406920F0800021684861256806E0206846
:10243000006820F00E00216808602568CA492068FD
:10244000884270D0C8491831206888426BD0C6498C
:1024500030312068884266D0C349483120688842BC
:1024600061D0C1496031206888425CD0BE49783172
:102470002068884257D0BC4990312068884252D0A9
:10248000B949A831206888424DD0B84920688842AF
:1024900049D0B64918312068884244D0B349303118
:1024A000206888423FD0B1494831206888423AD0FC
:1024B000AE4960312068884235D0AC497831206817
:1024C000884230D0A9499031206888422BD0A74952
:1024D000A8312068884226D0A5492068884222D0A9
:1024E000A3491431206888421DD0A14928312068B1
:1024F000884218D09E493C312068884213D09C49BC
:102500005031206888420ED0994964312068884251
:1025100009D0974978312068884204D094498C3199
:102520002068884201D1012000E0002028B1206EFF
:10253000006820F48070216E08608B492068884212
:1025400049D0894918312068884244D086493031C1
:10255000206888423FD084494831206888423AD078
:10256000814960312068884235D07F4978312068C0
:10257000884230D07C499031206888422BD07A49FB
:10258000A8312068884226D078492068884222D025
:1025900076491831206888421DD07449303120684E
:1025A000884218D0714948312068884213D06F4959
:1025B0006031206888420ED06C49783120688842AA
:1025C00009D06A4990312068884204D06749A8310F
:1025D0002068884206D12068006820F00100216848
:1025E000086005E02068006820F0010021680860AC
:1025F00011E002F039FDA0EB080005280BD92020DE
:102600006065032084F8350000BF002084F83400A2
:1026100000BF01209CE6286800F001000028E8D1F6
:1026200051492068884249D04F4918312068884272
:1026300044D04D493031206888423FD04A49483122
:10264000206888423AD0484960312068884235D0B5
:10265000454978312068884230D04349903120681C
:1026600088422BD04049A8312068884226D03F4973
:102670002068884222D03D491831206888421DD008
:102680003A4930312068884218D0384948312068AA
:10269000884213D035496031206888420ED03349D2
:1026A00078312068884209D03049903120688842CA
:1026B00004D02E49A8312068884201D1012000E0D1
:1026C000002040B1A66D94F85C0000F01F013F208F
:1026D0008840B06007E0A76D94F85C0000F01F012F
:1026E00001208840786020492068884276D01E49C1
:1026F00018312068884271D01B49303120688842E7
:102700006CD0194948312068884267D01649603139
:102710002068884262D014497831206888425DD0B0
:10272000114990312068884258D00F49A83120685B
:10273000884253D00D49206888424FD00B49183148
:10274000206888424AD0094930312068884245D003
:10275000064948312068884240D0044960312068E9
:1027600088423BD0014905E01000024010040240BD
:10277000085402587831206888422FD025492068B3
:1027800088422BD0234918312068884226D022491C
:102790002068884222D020491431206888421DD008
:1027A0001D4928312068884218D01B493C312068D7
:1027B000884213D018495031206888420ED01649FB
:1027C00064312068884209D01349783120688842F2
:1027D00004D011498C312068884201D1012000E0E9
:1027E000002068B1D4E919104860E06E40B1E06E95
:1027F000006820F48070E16E0860D4E91C10486025
:10280000012084F8350000BF002084F8340000BFA8
:1028100000BF9DE5A00402400854025870B504466C
:102820000CB9012070BD94F83500022803D0802037
:1028300060650120F6E7DC492068884249D0DA4922
:1028400018312068884244D0D74930312068884206
:102850003FD0D5494831206888423AD0D2496031CA
:102860002068884235D0D04978312068884230D0FD
:10287000CD499031206888422BD0CB49A8312068BF
:10288000884226D0C9492068884222D0C7491831D9
:10289000206888421DD0C54930312068884218D050
:1028A000C24948312068884213D0C049603120684D
:1028B00088420ED0BD4978312068884209D0BB4992
:1028C00090312068884204D0B849A83120688842F5
:1028D00001D1012000E00020F0B3042084F835008D
:1028E000B149206888424BD0AF49183120688842EE
:1028F00046D0AD4930312068884241D0AA4948319C
:10290000206888423CD0A84960312068884237D08E
:10291000A54978312068884232D0A3499031206897
:1029200088422DD0A049A8312068884228D09F49EC
:102930002068884224D09D491831206888421FD0E1
:102940009A493031206888421AD098494831206825
:10295000884215D0954900E020E060312068884227
:102960000ED0924978312068884209D08F49903141
:102970002068884204D08D49A8312068884206D159
:102980002068006820F001002168086009E12068E3
:10299000006820F001002168086002E120680068FA
:1029A00020F00E00216808607F492068884249D0E5
:1029B0007D4918312068884244D07B4930312068F5
:1029C00088423FD078494831206888423AD07649D9
:1029D00060312068884235D0734978312068884258
:1029E00030D071499031206888422BD06E49A8318F
:1029F0002068884226D06D492068884222D06B49E1
:102A00001831206888421DD06849303120688842DA
:102A100018D0664948312068884213D06349603134
:102A2000206888420ED0614978312068884209D0F8
:102A30005E4990312068884204D05C49A831206802
:102A4000884206D12068006820F0010021680860F3
:102A500005E02068006820F0010021680860524904
:102A60002068884270D050491831206888426BD065
:102A70004D4930312068884266D04B494831206842
:102A8000884261D048496031206888425CD046491C
:102A900078312068884257D0434990312068884275
:102AA00052D04149A831206888424DD03F49206822
:102AB000884249D03D4918312068884244D03B497A
:102AC0003031206888423FD03849483120688842F8
:102AD0003AD0364960312068884235D03349783160
:102AE0002068884230D031499031206888422BD00C
:102AF0002E49A8312068884226D02D492068884276
:102B000022D02B491431206888421DD02849283111
:102B10002068884218D026493C312068884213D06A
:102B200023495031206888420ED021496431206801
:102B3000884209D01E4978312068884204D01C4957
:102B40008C312068884201D1012000E00020D8B1FA
:102B5000206E006820F48070216E0860A56D94F8E6
:102B60005C0000F01F01012088406860D4E9191062
:102B70004860E06E40B1E06E006820F48070E16E65
:102B80000860D4E91C104860012084F8350000BFBB
:102B9000002084F8340000BF206D10B12046216D64
:102BA000884700203EE6000010000240100402406A
:102BB000085402582DE9F84F044600200090FE48C2
:102BC00000684FF41651B0FBF1FAA66DD4F85880A6
:102BD0003768D8F80090F9492068884249D0F74909
:102BE00018312068884244D0F44930312068884246
:102BF0003FD0F2494831206888423AD0EF496031ED
:102C00002068884235D0ED4978312068884230D03C
:102C1000EA499031206888422BD0E849A8312068E1
:102C2000884226D0E6492068884222D0E4491831FB
:102C3000206888421DD0E24930312068884218D08F
:102C4000DF4948312068884213D0DD49603120686F
:102C500088420ED0DA4978312068884209D0D849B4
:102C600090312068884204D0D549A8312068884234
:102C700001D1012000E0002000287DD094F85C0004
:102C800000F01F01082088403840002868D0CB4958
:102C90002068884249D0C94918312068884244D008
:102CA000C6493031206888423FD0C4494831206845
:102CB00088423AD0C14960312068884235D0BF4946
:102CC00078312068884230D0BC49903120688842F1
:102CD0002BD0BA49A8312068884226D0B84920684C
:102CE000884222D0B6491831206888421DD0B449A4
:102CF00030312068884218D0B14948312068884274
:102D000013D0AF496031206888420ED0AC49783189
:102D10002068884209D0AA4990312068884204D0AE
:102D2000A749A8312068884204D12068006800F0D3
:102D3000040003E02068006800F0080080B120680B
:102D4000006820F004002168086094F85C0000F03E
:102D50001F0108208840B060606D40F00100606590
:102D600094F85C0000F01F01012088403840E8B36F
:102D700092492068884200E0B7E24BD08F49183171
:102D80002068884246D08D4930312068884241D041
:102D90008A494831206888423CD08849603120689F
:102DA000884237D0854978312068884232D08349BB
:102DB0009031206888422DD08049A831206888420F
:102DC00028D07F492068884224D07D491831206866
:102DD00088421FD07A493031206888421AD0784919
:102DE00048312068884215D0754900E026E06031FE
:102DF000206888420ED0724978312068884209D014
:102E00006F4990312068884204D06D49A83120680C
:102E1000884204D12068406900F0800002E0206808
:102E20000068002050B194F85C0000F01F01012000
:102E30008840B060606D40F00200606594F85C000E
:102E400000F01F01042088403840E8B35B49206847
:102E500088424BD0594918312068884246D057499A
:102E600030312068884241D0544948312068884236
:102E70003CD0524960312068884237D04F49783180
:102E80002068884232D04D499031206888422DD048
:102E90004A49A8312068884228D049492068884298
:102EA00024D047491831206888421FD04449303126
:102EB000206888421AD0424948312068884215D09B
:102EC0003F496031206800E024E088420ED03C4950
:102ED00078312068884209D0394990312068884289
:102EE00004D03749A8312068884204D1206800689E
:102EF00000F0020002E020680068002050B194F861
:102F00005C0000F01F0104208840B060606D40F05C
:102F10000400606594F85C0000F01F0110208840F8
:102F20003840E8B325492068884251D023491831F8
:102F3000206888424CD0214930312068884247D0EF
:102F40001E4948312068884242D01C4960312068BF
:102F500088423DD0194978312068884238D01749D5
:102F600090312068884233D01449A83120688842C3
:102F70002ED01349206888422AD011491831206880
:102F8000884225D00E4930312068884220D00C4933
:102F90004831206888421BD009496031206800E030
:102FA0004DE0884214D006497831206888420FD01D
:102FB00003499031206805E01C0000241000024005
:102FC00010040240884203D0FE492068884204D1A0
:102FD0002068006800F0080003E02068006800F046
:102FE000040060B394F85C0000F01F0110208840DA
:102FF000B0602068006800F4802080B1206800681C
:1030000000F4002028B9206CC8B12046216C884704
:1030100015E0A06C98B12046A16C88470FE02068AD
:10302000006800F4807028B92068006820F008006B
:1030300021680860206C10B12046216C884794F804
:103040005C0000F01F0120208840384000287DD01F
:10305000DD492068884249D0DB4918312068884220
:1030600044D0D9493031206888423FD0D6494831D0
:10307000206888423AD0D44960312068884235D0EF
:10308000D14978312068884230D0CF4990312068CA
:1030900088422BD0CC49A8312068884226D0C94923
:1030A000A8392068884221D0C649903920688842D2
:1030B0001CD0C44978392068884217D0C14960398A
:1030C0002068884212D0BF494839206888420DD014
:1030D000BC4930392068884208D0BA49183920687C
:1030E000884203D0B7492068884204D1206800682C
:1030F00000F0100003E02068006800F0020028B330
:1031000094F85C0000F01F0120208840B06094F823
:10311000350004282DD12068006820F016002168B1
:1031200008602068406920F0800021684861206CB8
:1031300008B9A06C28B12068006820F00800216858
:10314000086094F85C0000F01F0100E03FE03F20C1
:103150008840B060012084F8350000BF002084F86A
:10316000340000BF206D10B12046216D8847BDE8B6
:10317000F88F2068006800F4802080B12068006823
:1031800000F4002028B9606C08B32046616C8847C1
:103190001DE0E06BD8B12046E16B884717E020685E
:1031A000006800F4807068B92068006820F01000A2
:1031B00021680860012084F8350000BF002084F8F1
:1031C000340000BFE06B10B12046E16B8847606DB2
:1031D00000287AD0606D00F00100E8B3042084F884
:1031E00035007949206888424BD0774918312068EA
:1031F000884246D0744930312068884241D07249B3
:103200004831206888423CD06F496031206888424C
:1032100037D06D4978312068884232D06A49903180
:10322000206888422DD06849A8312068884228D07B
:103230006449A8392068884223D0624990392068BF
:1032400088421ED05F4978392068884219D05D498C
:1032500060392068884200E040E012D0594948397E
:10326000206888420DD0574930392068884208D0FC
:10327000544918392068884203D05249206888424E
:1032800006D12068006820F001002168086005E090
:103290002068006820F001002168086000BF0098E5
:1032A000401C0090504500D905E02068006800F0FF
:1032B00001000028F3D100BF2068006800F0010081
:1032C00020B1032084F8350003E00DE0012084F8EC
:1032D000350000BF002084F8340000BFE06C0028F7
:1032E00002D02046E16C8847D9E1384920688842FD
:1032F00022D036491431206888421DD03349283104
:103300002068884218D031493C312068884213D067
:103310002E495031206888420ED02C4964312068F3
:10332000884209D0294978312068884204D0274949
:103330008C312068884201D1012000E00020002863
:10334000D2D02068056894F85C0000F01F010420CA
:10335000884000EA0900D8B305F00400C0B394F82F
:103360005C0000F01F0104208840C8F8040005F448
:10337000004080B105F4803030B9A06C0028B3D093
:103380002046A16C88478AE1206C0028ACD02046FA
:10339000216C884783E105F02000E8BB0A492068DA
:1033A000884253D008491831206888424ED00649D7
:1033B00030312068884249D003494831206888422A
:1033C00044D006E0B80402401000024008540258FD
:1033D0004FE0B44960312068884237D0B149783134
:1033E0002068884232D0AF499031206888422DD081
:1033F000AC49A8312068884228D0AB49206888426F
:1034000024D0A9491831206888421FD0A6493031FC
:10341000206888421AD000E025E0A349483120689E
:10342000884213D0A0496031206888420ED09E495E
:1034300078312068884209D09B49903120688842C1
:1034400004D09949A8312068884206D120680068D4
:1034500020F008002168086005E02068006820F07E
:10346000040021680860206C10B32046216C884756
:1034700015E194F85C0000F01F010220884000EA8A
:103480000900E8B305F00200D0B394F85C0000F046
:103490001F0102208840C8F8040005F4004070B104
:1034A00005F4803028B9606C10B12046616C884703
:1034B000F5E0E06BF0B32046E16B8847EFE005F004
:1034C0002000C0BB7749206888424ED0754918312A
:1034D0002068884249D0734930312068884244D0FE
:1034E00070494831206888423FD06E496031206879
:1034F00088423AD06B4978312068884235D000E064
:103500004EE068499031206888422ED06549A83144
:103510002068884229D064492068884225D06249C1
:1035200018312068884220D05F49303120688842B5
:103530001BD001E06EE02DE05B49483120688842F5
:1035400013D059496031206888420ED056497831ED
:103550002068884209D0544990312068884204D0BC
:103560005149A8312068884206D12068006820F0BF
:1035700014002168086005E02068006820F00A0057
:1035800021680860012084F8350000BF002084F81D
:10359000340000BFE06BE8B32046E16B88477EE073
:1035A00094F85C0000F01F010820884000EA090040
:1035B00080B305F0080068B33A49206888424BD0D0
:1035C000384918312068884246D036493031206861
:1035D000884241D033494831206888423CD0314943
:1035E00060312068884237D02E497831206888427F
:1035F00032D02C499031206888422DD02949A831F9
:103600002068884228D028492068884224D026494A
:10361000183100E043E0206888421DD02249303153
:103620002068884218D0204948312068884213D049
:103630001D496031206888420ED01B4978312068CE
:10364000884209D0184990312068884204D0164930
:10365000A8312068884206D12068006820F01C004C
:103660002168086005E02068006820F00E002168ED
:10367000086094F85C0000F01F0101208840C8F841
:1036800004000120606584F8350000BF002084F844
:10369000340000BFE06C10B12046E16C884700BFE9
:1036A00065E5000010000240100402402DE9F041E1
:1036B000044601F0D9FC804614B90120BDE8F08130
:1036C000FE492068884249D0FC4918312068884268
:1036D00044D0FA493031206888423FD0F749483118
:1036E000206888423AD0F54960312068884235D058
:1036F000F24978312068884230D0F0499031206812
:1037000088422BD0ED49A8312068884226D0EC4968
:103710002068884222D0EA491831206888421DD0AA
:10372000E74930312068884218D0E549483120689F
:10373000884213D0E2496031206888420ED0E049C7
:1037400078312068884209D0DD499031206888426C
:1037500004D0DB49A8312068884201D1012000E073
:103760000020002873D0606A00B100BF022084F8F6
:10377000350000BF002084F8340000BFCF49206826
:10378000884249D0CD4918312068884244D0CB497D
:103790003031206888423FD0C8494831206888428B
:1037A0003AD0C64960312068884235D0C349783163
:1037B0002068884230D0C1499031206888422BD09F
:1037C000BE49A8312068884226D0BD492068884279
:1037D00022D0BB491831206888421DD0B849303109
:1037E0002068884218D0B64948312068884213D0F2
:1037F000B3496031206888420ED0B14978312068E1
:10380000884209D0AE4990312068884204D0AC4942
:10381000A8312068884206D12068006820F00100A5
:103820002168086005E02068006820F00100216838
:1038300008600DE001F018FCA0EB0800052807D98E
:1038400020206065032084F83500012036E769E018
:103850002068006800F001000028EBD120680568AE
:1038600098480540D4E90201084321690843616989
:103870000843A1690843E1690843216A08430543F5
:10388000606A042803D1D4E90B010843054360684A
:10389000292802D360682E2817D960683F2802D3F0
:1038A0006068422811D96068472802D360684828B8
:1038B0000BD960684F2802D36068522805D9606828
:1038C000742804D36068772801D8012000E0002024
:1038D00008B145F48015206805602068456925F029
:1038E0000705606A0543606A04280DD1A06A054394
:1038F000E06A48B12046FDF7B5FD28B1402060657B
:10390000012084F83500D9E6206845612046FDF79E
:1039100085FC064694F85C0000F01F013F208840BB
:10392000B0609EE068492068884222D06649143120
:10393000206888421DD0644928312068884218D008
:1039400061493C312068884213D05F49503120687A
:1039500088420ED05C4964312068884209D05A49B7
:1039600078312068884204D057498C3120688842D9
:1039700001D1012000E00020E0B3534920688842D3
:1039800022D051491431206888421DD04E49283137
:103990002068884218D04C493C312068884213D0B6
:1039A00049495031206888420ED047496431206827
:1039B000884209D0444978312068884204D042497D
:1039C0008C312068884201D1012000E0002000B144
:1039D00000BF022084F8350000BF002084F83400C6
:1039E00000BF2068056839480540A068402802D11A
:1039F000102106E02EE0A068802801D1C10100E07E
:103A00000021E06841EAD001206941EAD001606903
:103A100041EAD001A06941EAD001E06941EAD00160
:103A2000206A41EA10100543206805602649206895
:103A3000401A1421B0FBF1F08000E0652046FDF74C
:103A4000EDFB074694F85C0000F01F010120884060
:103A5000786006E040206065032084F8350001208E
:103A60002CE61649206888427AD01449183120681B
:103A7000884275D0114930312068884270D00F4992
:103A80004831206888426BD00C49603120688842F8
:103A900066D00A4978312068884261D00749903160
:103AA000206888425CD00549A8312068884257D0F8
:103AB00003492068884253D0014909E010000240C0
:103AC000100402403F8010FE085402580F00FEFF11
:103AD00018312068884243D03749206888423FD057
:103AE00035491831206888423AD03349303120684E
:103AF000884235D0304948312068884230D02E493C
:103B00006031206888422BD02B4978312068884268
:103B100026D02A492068884222D0284914312068BA
:103B200088421DD0254928312068884218D0234971
:103B30003C312068884213D02049503120688842A7
:103B40000ED01E4964312068884209D01B49783163
:103B50002068884204D019498C312068884201D1FC
:103B6000012000E0002000B32046FDF7CDFBA06857
:103B7000802801D1002060602079216E0860D4E99E
:103B800019104860606860B16068082809D820464C
:103B9000FDF71CFC0020E16E0860D4E91C104860B1
:103BA00003E00020E0662067606700206065012078
:103BB00084F83500002081E5400402400854025892
:103BC0002DE9F04104460D4616461F464FF0000809
:103BD00014B90120BDE8F08100BF94F83400012839
:103BE00001D10220F6E7012084F8340000BF94F8E8
:103BF000350001287ED1022084F835000020606560
:103C0000E4492068884249D0E24918312068884256
:103C100044D0E0493031206888423FD0DD49483106
:103C2000206888423AD0DB4960312068884235D02C
:103C3000D84978312068884230D0D6499031206800
:103C400088422BD0D349A8312068884226D0D24957
:103C50002068884222D0D0491831206888421DD07F
:103C6000CD4930312068884218D0CB49483120688E
:103C7000884213D0C8496031206888420ED0C649B6
:103C800078312068884209D0C34990312068884241
:103C900004D0C149A8312068884206D12068006854
:103CA00020F001002168086005E02068006820F02D
:103CB0000100216808603B46324629462046FDF750
:103CC00029FCB449206888424BD0B2491831206899
:103CD000884246D0AF4930312068884241D0AD4952
:103CE0004831206888423CD0AA4960312068884227
:103CF00037D000E042E1A74978312068884230D0CF
:103D0000A4499031206888422BD0A249A83120686C
:103D1000884226D0A0492068884222D09E49183186
:103D2000206888421DD09C4930312068884218D0D4
:103D3000994948312068884213D0974960312068FA
:103D400088420ED0944978312068884209D092493F
:103D500090312068884204D08F49A8312068884279
:103D600001D1012000E0002080B12068006820F02F
:103D70001E0040F0160021680860206CB0B1206879
:103D8000006840F00800216808600FE020680068C3
:103D900020F00E0040F00A0021680860206C28B175
:103DA0002068006840F004002168086079492068B4
:103DB000884270D077491831206888426BD07549A5
:103DC00030312068884266D0724948312068884284
:103DD00061D070496031206888425CD06D4978318B
:103DE0002068884257D06B4990312068884252D071
:103DF0006849A831206888424DD0674920688842C8
:103E000049D0654918312068884244D06249303130
:103E1000206888423FD060494831206888423AD0C3
:103E20005D4960312068884235D05B49783120682F
:103E3000884230D058499031206888422BD056496A
:103E4000A8312068884226D054492068884222D070
:103E500052491431206888421DD0504928312068C9
:103E6000884218D04D493C312068884213D04B49D4
:103E70005031206888420ED0484964312068884219
:103E800009D0464978312068884204D043498C31B2
:103E90002068884201D1012000E0002090B1206E0E
:103EA000006800F4803028B1206E006840F4807013
:103EB000216E0860E06E28B1E06E006840F480700A
:103EC000E16E086033492068884249D03149183191
:103ED0002068884244D02F493031206888423FD042
:103EE0002C494831206888423AD02A4960312068FC
:103EF000884235D0274978312068884230D025491A
:103F00009031206888422BD02249A831206888420D
:103F100026D021492068884222D01F4918312068C4
:103F200088421DD01C4930312068884218D01A4977
:103F300048312068884213D0174960312068884290
:103F40000ED0154978312068884209D01249903145
:103F50002068884204D01049A8312068884206D1E0
:103F60002068006840F001002168086010E02068C7
:103F7000006840F001002168086009E04FF400602B
:103F8000606500BF002084F8340000BF4FF00108D6
:103F900040461FE610000240100402400854025838
:103FA00070B5044601F060F806462546681C10B15D
:103FB00004480078054400BF01F056F8801BA84271
:103FC000FAD370BD1800002430B5034693F898402A
:103FD000012C01D0022C3ED11868806D084030B908
:103FE0001868C06D40F001001D68E8650EE01868B3
:103FF000806D0840884206D11868C06D40F002000C
:104000001D68E86502E003201D68E86501F40070A2
:1040100030B11868D0F8E00010431D68C5F8E00022
:1040200001F4806030B11868D0F8E40010431D68D6
:10403000C5F8E40000BF1868406D0B4D0D402843E3
:104040001D6868650948006840EA9170074D28605E
:1040500000BF002030BDD3F89C0040F00200C3F840
:104060009C000120F6E70000FFFFCF3F14A80040AE
:104070002DE9F04104460E461746706800B900E08D
:1040800000BF94F89800022832D12068D0F8C00010
:1040900000F07C5040B9D4F89C0040F02000C4F8F7
:1040A0009C000120BDE8F0812068D0F8C40000F435
:1040B000001038B1D4F89C0040F40070C4F89C00A3
:1040C0000120EFE72068D0F8C400C0F304452B4678
:1040D0003A4631462046FDF7F1FF0120A84021680D
:1040E000C1F8D0000120A840C4F894000020D9E70E
:1040F000D4F89C0040F00800C4F89C000120D1E7EF
:104100007047F0B5024692F89860012E01D0022E59
:1041100043D1C868072800D100BF086818BBC86829
:10412000072800D000BFC86807280BD1088A4FF0C5
:10413000605747EA0040CF6940EA07208F6940EAAC
:1041400007040AE0087A80070F7B40EAC7600F8AFD
:1041500040EA07404F6940EA0704D76E486807EB1A
:1041600080031C6017E0C868072800D000BF0F7BE1
:10417000086940EA4774C868072801D18D6903E0DF
:104180000F7A486940EA8775176F486807EBC003E4
:104190001C601B1D1D600020F0BDD2F89C0040F08B
:1041A0000200C2F89C000120F6E770B50446049DA9
:1041B00094F8980001280AD1080140EA820040EAF8
:1041C000430028432668C6F88000002070BDD4F85C
:1041D0009C0040F00400C4F89C000120F6E7704702
:1041E000704700002DE9F04304460D469C4600232D
:1041F00094F89880B8F1020F74D1402D38D120681E
:10420000D0F8A00000F4FE0040B9D4F89C0040F0C3
:104210002000C4F89C000120BDE8F0832068D0F89D
:10422000A40000F07F0038B9D4F89C0040F48070FE
:10423000C4F89C000120EFE72068D0F8A400C0F388
:10424000006040B12068D0F8A0004FF00109B9EB40
:10425000D07F00D101232068D0F8A400C0F305204E
:104260000344606C5843D4F8749009EB80014BE030
:10427000412D38D12068D0F8B00000F4FE0038B9E4
:10428000D4F89C0040F02000C4F89C000120C3E753
:104290002068D0F8B40000F07F0038B9D4F89C0052
:1042A00040F48070C4F89C000120B5E72068D0F885
:1042B000B400C0F3006040B12068D0F8B0004FF007
:1042C0000109B9EBD07F00D101232068D0F8B400F8
:1042D000C0F305200344E06C5843D4F8789009EB10
:1042E000800111E06DE0206DA84207D8D4F89C0051
:1042F00040F02000C4F89C0001208DE7606D684309
:10430000D4F87C9009EB8001086800F08040506090
:10431000506820B90868C0F38A40106003E008685C
:1043200020F060401060086800F00050906008685D
:1043300000F000401061091D088880B2D061086853
:10434000C0F30340D060086800F480105061086832
:1043500000F4001090610868C0F3066010620868FD
:10436000C00F5062091D0F46002603E0B85D0CF82F
:104370000600761CDFF85C90D06819F80000B042A7
:10438000F4D8402D03D12068C0F8A83017E0412DA3
:1043900003D12068C0F8B83011E0202D06D20120EA
:1043A000A840D4F80090C9F8980008E005F01F096B
:1043B000012000FA09F0D4F80090C9F89C00002010
:1043C0002AE7D4F89C0040F00800C4F89C000120C3
:1043D00022E70000DCE40008704700002DE9F04F00
:1043E0008DB00446EF4800688707EE48001D00685E
:1043F00007EA80772068006D00F470482068406DFF
:1044000000EA08082068006D00F00F092068406D80
:1044100000EA09092068006D00F0F00A2068406D8C
:1044200000EA0A0A2068006D00F0715B2068406DA8
:1044300000EA0B0B2068006D00F060700C902068A3
:10444000406D0C9908400C902068456D2068066D01
:10445000C5F3002070B1C6F3002058B100BF4FF47F
:104460008070216808650020CE49086000BF2046A2
:10447000FFF7B2FFC5F38020C8B1C6F38020B0B10A
:104480002068D0F8DC000A902068D0F8E4000A998F
:1044900008400A9000BF4FF4806021680865002042
:1044A000C049086000BF20460A9900F0DAFC67B1F5
:1044B00000BFBD48384021680865B80FB949086099
:1044C00000BF39462046FFF71BFEB8F1000F0ED0A3
:1044D00000BFB54808EA0000216808654FEA9870F7
:1044E000B049086000BF4146204600F0BCFCB9F16D
:1044F000000F0ED000BFAC4809EA00002168086533
:104500004FEA9970A749086000BF4946204600F06D
:10451000C7FBBAF1000F0ED000BFA3480AEA0000A3
:10452000216808654FEA9A709E49086000BF5146AD
:10453000204600F075FCC5F3C02070B1C6F3C02062
:1045400058B100BF4FF4006021680865002095490C
:10455000086000BF204600F087FCC5F34020C8B1CA
:10456000C6F34020B0B12068D0F8D8000B90206886
:10457000D0F8E0000B9908400B9000BF4FF400709A
:104580002168086500208749086000BF20460B9914
:1045900000F068FCC5F3C04070B1C6F3C04058B12C
:1045A00000BF4FF400202168086500207D490860A5
:1045B00000BF204600F072FBC5F3004070B1C6F3A7
:1045C000004058B100BF4FF48030216808650020DA
:1045D0007449086000BF204600F042FCC5F38040EB
:1045E00070B1C6F3804058B100BF4FF480202168FD
:1045F000086500206B49086000BF204600F02FFCD2
:10460000C5F3404088B1C6F3404070B100BF4FF4DD
:1046100000302168086500206249086000BFD4F8B6
:104620009C0040F08000C4F89C000C9870B100BF62
:104630005D490C980840216808650C98800F59491D
:10464000086000BF20460C99FFF7CAFDBBF1000FC0
:1046500010D000BF54480BEA0000216808654FEAFB
:104660009B705049086000BFD4F89C0040EA0B00E2
:10467000C4F89C004D49206888427DD160688068FC
:1046800000F00300002877D06068006A00F00F0097
:1046900009906068406A0999084009906068006A5A
:1046A00000F0300008906068406A0899084008905F
:1046B0006068006A00F4C07007906068406A0799FB
:1046C000084007906068006A00F4FC40069060684B
:1046D000406A0699084006906068006A00F4F0207D
:1046E00005906068406A0599084005906068406AD6
:1046F00002906068006A0190099830B10998616879
:1047000008622046099900F0A7FB089830B1089884
:10471000616808622046089900F0A0FB0298C0F387
:104720008010A0B10198C0F3801080B16068C06BA8
:10473000000C04906068C06B00F03F0003904020C4
:10474000616808622046DDE9032100F086FB0798D6
:1047500030B10798616808622046079900F07BFB3A
:10476000069840B1069861680862D4F89C000699E2
:104770000843C4F89C0000E00AE0059840B10598A1
:1047800061680862D4F89C0005990843C4F89C004D
:10479000D4F89C0010B12046FFF721FD0DB0BDE814
:1047A000F08F000010A80040FFFFCF3F00A00040A6
:1047B00070B594B004464C22B34901A8FBF739FE0A
:1047C00014B9012014B070BDB0492068884203D1EB
:1047D000206800F580706060A068B0F5407F00D16F
:1047E00000BF206C00B100BFA06C00B100BF206D05
:1047F00000B100BF206E00B100BFD4E9171008441B
:1048000000B100BF94F8980028B9002084F89900FE
:10481000204600F03DF92068806920F010002168F2
:10482000886100F021FC05460EE000F01DFC401BF5
:104830000A2809D99834606840F0010060600320BC
:1048400004F898090120BDE72068806900F008009D
:104850000828EAD02068806940F00100216888615A
:1048600000F002FC05460EE000F0FEFB401B0A28AB
:1048700009D99834606840F001006060032004F8B2
:10488000980901209EE72068806900F00100002857
:10489000EAD02068806940F0020021688861207CAD
:1048A000012806D12068806920F0400021688861D5
:1048B00005E02068806940F0400021688861607CE4
:1048C000012806D12068806940F480402168886111
:1048D00005E02068806920F4804021688861A07C20
:1048E000012806D12068806920F480502168886101
:1048F00005E02068806940F4805021688861206864
:10490000806920F44070A1680843216888612068AC
:10491000806920F0A400216888612068006920F087
:10492000100021680861E068012806D120688069CC
:1049300040F004002168886120E0E068F0B1E068A0
:10494000022815D02068806940F0800021688861C5
:104950002068006940F0100021680861E0680328C1
:104960000CD12068806940F020002168886105E052
:104970002068806940F0200021688861207E401E08
:104980004106E069401E41EA0020216A491E0843B1
:10499000A18A491E40EA01402168C861A068B0F5BB
:1049A000407F0FD1A06A401EE16A491E40EA012102
:1049B000206B401E41EA0011A08C401E41EA0040DD
:1049C0002168C860206E38B12068D0F8C000616EE0
:1049D00008432168C1F8C000D4E91710084460B149
:1049E0002068D0F8C80020F0070001AAA16E52F894
:1049F000211008432168C1F8C800206C60B120680C
:104A0000D0F8BC0020F0070001AA616C52F8211018
:104A100008432168C1F8BC00A06C68B12068D0F8D8
:104A2000BC0020F0700101AAE06C52F8200041EABD
:104A300000102168C1F8BC00206D68B12068D0F872
:104A4000BC0020F4E06101AA606D52F8200041EA48
:104A500000202168C1F8BC000C492068884205D1BB
:104A60006068806820F0030061688860002044F876
:104A7000940FA06001202071943C2046FDF70EFAAF
:104A8000064630469EE60000ECE4000800A0004028
:104A900010B5B6B00446142130A8FBF7E3FCB821EA
:104AA00002A8FBF7DFFC76492068884249D14FF421
:104AB00000410020CDE9021048031D9002A800F03B
:104AC000B3FE08B1FDF7BDF96E480068401C6D49A2
:104AD00008600846006801280DD100BF6A480068D8
:104AE00040F48070684908600846006800F48070EF
:104AF000019000BF00BF00BF63480C38006840F061
:104B0000080061490C3908600846006800F0080098
:104B1000019000BF00BF03203090022031900020A0
:104B2000329033900920349030A9584800F09EF913
:104B300000220621132000F0B3FB132000F09CFBA1
:104B40009BE053492068884249D14FF4004100203E
:104B5000CDE9021048031D9002A800F065FE08B1DF
:104B6000FDF76FF947480068401C46490860084651
:104B7000006801280DD100BF4348006840F48070F0
:104B8000414908600846006800F48070019000BF49
:104B900000BF00BF3C480C38006840F002003A49B2
:104BA0000C3908600846006800F00200019000BF60
:104BB00000BF60203090022031900020329033906E
:104BC0000920349030A9334800F050F90022062122
:104BD000142000F065FB142000F04EFB4DE02E4940
:104BE0002068884249D14FF400410020CDE90210ED
:104BF00048031D9002A800F017FE08B1FDF721F947
:104C000020480068401C1F490860084600680128C9
:104C10000DD100BF1C48006840F480701A4908603C
:104C20000846006800F48070019000BF00BF00BF1C
:104C300015480C38006840F0080013490C3908602A
:104C40000846006800F00800019000BF00BF4FF464
:104C50004050309002203190002032903390052057
:104C6000349030A9094800F001F9002206219F2064
:104C700000F016FB9F2000F0FFFA36B010BD0000D8
:104C800000A000400C000024EC440258000C025824
:104C900000A400400004025800D400407047000007
:104CA00030B58DB004460D4601AB03AA4021204625
:104CB000FFF798FA4749206888422CD100BF00BF0F
:104CC0009DF8040000F00F00072823D2DFE800F071
:104CD0002204090E13181D0001A93F48FCF79CFD92
:104CE00018E001A93D48FCF797FD13E001A93C48F5
:104CF000FCF792FD0EE001A93A48FCF78DFD09E0B2
:104D000001A93948FCF788FD04E001A93748FCF700
:104D100083FD00BF33E03649206888422FD10398D5
:104D2000A0F2012005281DD2DFE800F003080D12D3
:104D3000170001A92F48FCF785F913E001A92E48B7
:104D4000FCF780F90EE001A92C48FCF77BF909E09B
:104D500001A92B48FCF776F904E001A92948FCF7E2
:104D600071F900BF00BF9DF8040000F00F00052896
:104D700004D101A92448FCF74FFD00BF00BF23491F
:104D80002068884223D100BF00BF9DF8040000F0D6
:104D90000F00012806D0022809D003280CD00428CF
:104DA00014D10EE001A91A48FCF736FD0EE001A966
:104DB0001848FCF731FD09E001A91748FCF72CFD64
:104DC00004E001A91548FCF727FD00BF00BF0DB0A6
:104DD00030BD000000A000401C51002424520024DB
:104DE0002C53002434540024E8600024F061002493
:104DF00000A400403C550024D856002474580024D8
:104E0000105A002420630024BC64002400D4004015
:104E1000645C00246C5D0024745E00247C5F0024CC
:104E20007047014691F8980001280CD1022081F8C2
:104E300098000868806920F001000A6890610020ED
:104E4000C1F89C007047D1F89C0040F00400C1F804
:104E50009C000120F6E77047704770477047704725
:104E6000704770477047704770470000F8B50246BA
:104E70000B4600216D4DD2E001278F401E6806EAE7
:104E80000704002C72D01E7906F00306012E04D010
:104E90001E7906F00306022E13D190684F000326F8
:104EA000BE40B0434F00DE68BE4030439060506863
:104EB00001268E40B0431E79C6F300168E40304363
:104EC00050601E7906F00306032E09D0D0684F000B
:104ED0000326BE40B0434F009E68BE403043D060C2
:104EE0001E7906F00306022E13D1CF0802F1200628
:104EF00056F827004E07F70E0F26BE40B0434F0767
:104F0000FF0E1E69BE403043CF0802F1200646F86E
:104F1000270010684F000326BE40B0431E7906F0FC
:104F200003064F00BE40304310605E6806F4403612
:104F3000002E73D000BF3E4E366846F002063C4F4E
:104F40003E603E46366806F00206009600BF00BF8F
:104F5000384E8F0856F827008E07370F0F26BE40B1
:104F6000B043354EB24202D1002629E056E0334E1E
:104F7000B24201D1012623E0314EB24201D10226D4
:104F80001EE0304EB24201D1032619E02E4EB2424D
:104F900001D1042614E02D4EB24201D105260FE0C6
:104FA0002B4EB24201D106260AE02A4EB24201D16E
:104FB000072605E0284EB24201D1092600E00A2664
:104FC0008F073F0FBE4030431A4E8F0846F8270028
:104FD0004FF0B0463068A0435E6806F4801606B114
:104FE00020434FF0B04630607068A0435E6806F41E
:104FF000001606B120434FF0B04670606868A043C9
:105000005E6806F4003606B1204368602868A04355
:105010005E6806F4803606B120432860491C1E688D
:10502000CE40002E7FF428AFF8BD0000800000586D
:10503000F4440258080400580000025800040258C2
:1050400000080258000C02580010025800140258C0
:1050500000180258001C0258002402580AB181614D
:1050600001E00B048361704701480068704700004D
:1050700010000024034800680349097808440149E6
:1050800008607047100000241800002410B50320A9
:1050900000F044F901F03CFC10490968C1F3032118
:1050A0000F4A515C01F01F0120FA01F40B4800681F
:1050B00000F00F001146085C00F01F0024FA00F019
:1050C00008490860084804600F2000F00FF808B194
:1050D000012010BD00F0B8F80020FAE7184402588B
:1050E00060E50008200000241C00002470B58AB090
:1050F0000446102C0AD2002221462C2000F0D0F8C1
:105100002C2000F0B9F81948046002E001200AB030
:1051100070BD00BF1648006840F0020014490860E6
:105120000846006800F00200009000BF00BF01A91F
:1051300002A801F06DFB01F0D9FB45000D48B5FB5D
:10514000F0F0461E0C480D49086040F2E7310B486C
:10515000C160466000210161816002F013F918B955
:10516000064802F0F7F9D2E70120D0E71400002446
:10517000F044025840420F0000040140740700242C
:105180004178154A116014490831096821F001017C
:10519000114A08321160121F41681160017B090732
:1051A000C27A41EA0261827A41EAC241427B41EA23
:1051B0008241827B41EA4241C27B41EA0241427A1A
:1051C00041EA0221027A41EA420102781143024A8D
:1051D000083211607047000098ED00E000BF00BF8A
:1051E00000BFBFF35F8F00BF00BF00BF054800686E
:1051F00020F48030034908600020024970310860C3
:105200007047000024ED00E040F001010D4A1160FC
:105210000C497039096841F480310A4A703A1160CA
:1052200000BF00BF00BFBFF34F8F00BF00BF00BF74
:1052300000BF00BF00BFBFF36F8F00BF00BF00BF44
:105240007047000094ED00E008B500BF0948006811
:1052500040F00200074908600846006800F00200BC
:10526000009000BF00BF00220F21901E00F018F830
:1052700008BD0000F44402580146084600280DDB32
:1052800000BF00BF00F01F0301229A4043099B00AA
:1052900003F1E023C3F8002100BF00BF00BF704747
:1052A0002DE9F05F80460D46164605F0EFFE0746F5
:1052B00039462A46334601F00700C0F1070ABAF121
:1052C000040F02D94FF0040A01E0C0F1070AD146E9
:1052D00000F1040ABAF1070F02D24FF0000A01E010
:1052E000A0F1030AD4464FF0010A0AFA09FAAAF11A
:1052F000010A0AEA020A0AFA0CFA4FF0010B0BFA49
:105300000CFBABF1010B0BEA030B4AEA0B04214641
:10531000404605F0C3FEBDE8F09F000000BF00F06E
:105320000702064B19684FF6FF031940044B0B4365
:1053300043EA0221014B196000BF70470CED00E009
:105340000000FA0570B5044615480068C0F38000F7
:1053500048B91348006800F00700A04201D00120BE
:1053600070BD0020FCE70E48006820F007002043D5
:105370000B490860FFF778FE054607E0FFF774FE6B
:10538000401BB0F57A7F01D90120E9E704480838CD
:105390000068C0F340300028F0D00020E0E70000B3
:1053A0000C48025810B501F069FA05490968C1F3C3
:1053B0000211044A515C01F01F01C84010BD0000F9
:1053C0002044025860E5000870B50146844D2D6800
:1053D00005F00303824D2D68C5F30530804D2D1D6A
:1053E0002D68C5F300147E4D14352D68C5F3CC052A
:1053F00015FB04F501EE105AB8EE411AF0EE410A21
:1054000000286FD023B1012B4ED0022B6BD16BE063
:10541000734D283D2D68C5F340153DB3704D283DB3
:105420002D68C5F3C1066F4D25FA06F201EE102A6C
:10543000F8EE411A01EE100AB8EE411A81EE812A07
:105440009FED691AC0EE811A654D10352D68C5F3C0
:10545000080501EE105AB8EE411A31EE811AF7EE46
:10546000001A31EE211A22EE010A1CE001EE100AA8
:10547000B8EE411ADFED5D1A81EE812A9FED5A1ACE
:10548000C0EE811A564D10352D68C5F3080501EEA2
:10549000105AB8EE411A31EE811AF7EE001A31EEC9
:1054A000211A22EE010A5BE001EE100AB8EE411A61
:1054B000DFED4F1A81EE812A9FED4B1AC0EE811A63
:1054C000474D10352D68C5F3080501EE105AB8EEAA
:1054D000411A31EE811AF7EE001A31EE211A22EE4E
:1054E000010A3DE077E01DE001EE100AB8EE411A36
:1054F0009FED402AC2EE011A9FED3B1A80EE812AF1
:10550000374D10352D68C5F3080501EE105AB8EE79
:10551000411A32EE011AB7EE002A31EE021A21EEDC
:10552000810A1DE001EE100AB8EE411ADFED301AD3
:1055300081EE812A9FED2C1AC0EE811A284D10357C
:105540002D68C5F3080501EE105AB8EE411A31EE88
:10555000811AF7EE001A31EE211A22EE010A00BF7D
:1055600000BF1F4D10352D68C5F3462501EE105ABA
:10557000B8EE411AF7EE001A31EE211AC0EE011A08
:10558000BCEEE11A81ED001A154D10352D68C5F3FA
:10559000064501EE105AB8EE411AF7EE001A31EE48
:1055A000211AC0EE011ABCEEE11A81ED011A0C4D70
:1055B00010352D68C5F3066501EE105AB8EE411A94
:1055C000F7EE001A31EE211AC0EE011ABCEEE11A14
:1055D00081ED021A03E000250D604D608D6070BD05
:1055E000284402580090D003000000460024744C68
:1055F0000024744A001BB74B70B50146844D2D68DA
:1056000005F00303824D2D68C5F30550804D2D1D17
:105610002D68C5F300247E4D1C352D68C5F3CC05DF
:1056200015FB04F501EE105AB8EE411AF0EE410AEE
:1056300000286FD023B1012B4ED0022B6BD16BE031
:10564000734D283D2D68C5F340153DB3704D283D81
:105650002D68C5F3C1066F4D25FA06F201EE102A3A
:10566000F8EE411A01EE100AB8EE411A81EE812AD5
:105670009FED691AC0EE811A654D18352D68C5F386
:10568000080501EE105AB8EE411A31EE811AF7EE14
:10569000001A31EE211A22EE010A1CE001EE100A76
:1056A000B8EE411ADFED5D1A81EE812A9FED5A1A9C
:1056B000C0EE811A564D18352D68C5F3080501EE68
:1056C000105AB8EE411A31EE811AF7EE001A31EE97
:1056D000211A22EE010A5BE001EE100AB8EE411A2F
:1056E000DFED4F1A81EE812A9FED4B1AC0EE811A31
:1056F000474D18352D68C5F3080501EE105AB8EE70
:10570000411A31EE811AF7EE001A31EE211A22EE1B
:10571000010A3DE077E01DE001EE100AB8EE411A03
:105720009FED402AC2EE011A9FED3B1A80EE812ABE
:10573000374D18352D68C5F3080501EE105AB8EE3F
:10574000411A32EE011AB7EE002A31EE021A21EEAA
:10575000810A1DE001EE100AB8EE411ADFED301AA1
:1057600081EE812A9FED2C1AC0EE811A284D183542
:105770002D68C5F3080501EE105AB8EE411A31EE56
:10578000811AF7EE001A31EE211A22EE010A00BF4B
:1057900000BF1F4D18352D68C5F3462501EE105A80
:1057A000B8EE411AF7EE001A31EE211AC0EE011AD6
:1057B000BCEEE11A81ED001A154D18352D68C5F3C0
:1057C000064501EE105AB8EE411AF7EE001A31EE16
:1057D000211AC0EE011ABCEEE11A81ED011A0C4D3E
:1057E00018352D68C5F3066501EE105AB8EE411A5A
:1057F000F7EE001A31EE211AC0EE011ABCEEE11AE2
:1058000081ED021A03E000250D604D608D6070BDD2
:10581000284402580090D003000000460024744C35
:105820000024744A001BB74B2DE9F04104460025C3
:10583000A8464FF00062D4E9001011400020134642
:1058400059404040014331D1606E48B1B0F5801FEE
:105850000DD0B0F5001F11D0B0F5401F16D114E0E7
:10586000FE48006840F40030FC49086010E0022166
:1058700004F1080003F0A2FD054609E0022104F14D
:10588000280003F04DFE054602E001E0012500BFBF
:1058900000BF55B9F1482430006820F44010616E13
:1058A0000843EE492431086000E0A8464FF48072B6
:1058B000D4E90010114000201346594040400143F4
:1058C0002ED1A06D05281BD2DFE800F0030A1118C5
:1058D0001900E248006840F40030E049086011E037
:1058E000002104F1080003F069FD05460AE00021EB
:1058F00004F1280003F014FE054603E002E001E095
:10590000012500BF00BF55B9D4482430006820F0FD
:105910000700A16D0843D1492431086000E0A84682
:105920004FF48062D4E90010114000201346594022
:10593000404001433DD1D4F8A400B0F5C00F24D0BD
:1059400007DC68B1B0F5001F11D0B0F5800F1FD192
:1059500014E0B0F5000F19D0B0F5200F18D116E003
:10596000BE48006840F40030BC49086012E00021E5
:1059700004F1080003F022FD05460BE0002104F1CC
:10598000280003F0CDFD054604E003E002E001E05D
:10599000012500BF00BF5DB9B0482C30006820F47D
:1059A0006000D4F8A4100843AC492C31086000E032
:1059B000A8464FF40062D4E90001104000211346CC
:1059C0005840494008433DD1D4F8A800B0F1407F89
:1059D00024D007DC68B1B0F1807F11D0B0F1007F36
:1059E0001FD114E0B0F1806F19D0B0F1A06F18D1C1
:1059F00016E09A48006840F400309849086012E0C8
:105A0000002104F1080003F0D9FC05460BE0002159
:105A100004F1280003F084FD054604E003E002E001
:105A200001E0012500BF00BF5DB98C482C30006843
:105A300020F0E060D4F8A810084388492C310860B1
:105A400000E0A8464FF00073D4E900101940002090
:105A500059404040014328D1E06CA8B1102804D03F
:105A6000202809D0302810D10DE07C48006840F48F
:105A700000307A4908600AE0022104F1080003F0CE
:105A80009DFC054603E002E001E0012500BF00BFE8
:105A900055B972482030006820F03000E16C0843AE
:105AA0006E492031086000E0A8464FF48053D4E9E5
:105AB00000101940002059404040014337D1E06DAB
:105AC000B0F5005F1AD004DC50B1B0F5805F1ED194
:105AD0000DE0B0F5405F18D0B0F5804F17D115E05C
