:020000040800F2
:1000000070930024A10300085DC70008ABB5000889
:10001000BDC30008AB0D0008ED260108000000007C
:10002000000000000000000000000000E1020008E5
:10003000F5340008000000003D0300085DE30008FF
:10004000BF030008BF030008BF030008BF03000888
:10005000BF030008BF030008BF030008BF03000878
:10006000BF030008BF030008BF0300084D2A0008B3
:10007000BF0300085D2A0008BF030008BF03000893
:10008000BF030008BF030008BF03000821350008B4
:1000900031350008BF030008BF030008BF03000894
:1000A000BF030008BF030008BF030008BF03000828
:1000B000BF030008BF0300083DE50008BF030008B8
:1000C000BF030008BF030008BF030008BF03000808
:1000D000BF030008DDFC0008EDFC0008FDFC000883
:1000E000BF030008BF03000800000000BF030008B2
:1000F00061E50008BF030008BF030008BF03000854
:10010000BF030008BF030008BF030008BF030008C7
:10011000BF030008BF030008BF030008BF030008B7
:10012000BF030008BF030008BF030008BF030008A7
:10013000BF030008BF030008BF030008BF03000897
:1001400000000000000000000000000000000000AF
:10015000BF030008BF030008BF030008BF03000877
:10016000BF030008BF030008BF030008BF03000867
:10017000BF03000861C70008BF03000800000000BB
:10018000BF030008BF030008F5EA0008BF0300082A
:10019000BF030008BF030008BF030008BF03000837
:1001A000BF030008BF030008BF03000800000000F1
:1001B000BF030008BF030008BF030008BF03000817
:1001C000BF030008BF03000800000000000000009B
:1001D0000000000000000000BF0300080000000055
:1001E000000000000000000000000000000000000F
:1001F0000000000000000000BF030008BF0300086B
:10020000BF030008BF03000800000000BF03000890
:10021000BF030008BF030008BF030008BF030008B6
:10022000BF03000800000000BF030008000000003A
:10023000BF030008BF03000800000000BF03000860
:10024000BF030008BF030008BF030008BF03000886
:10025000BF030008BF030008BF030008BF03000876
:10026000BF030008BF030008BF030008BF03000866
:10027000BF030008BF030008BF0300080000000020
:10028000BF030008BF030008BF030008BF03000846
:1002900000000000BF030008BF03000800000000CA
:1002A00000000000BF030008BF030008A5EB000822
:1002B000CDFC0008BF030008BF030008413500085B
:1002C000BF030008BF030008BF030008DFF80CD01D
:1002D00000F06AF900480047E94E010870930024D5
:1002E0002C4B19680868B0E8F04F80F30988BFF319
:1002F0006F8F4FF0000080F31188704700000000FE
:1003000008480068006880F308884FF0000080F318
:10031000148862B661B6BFF34F8FBFF36F8F00DFF3
:1003200000BF00BF08ED00E0DFF80C00016841F4F9
:1003300070010160704700BF88ED00E0EFF30980B5
:10034000BFF36F8F134B1A681EF0100F08BF20ED1C
:10035000108A20E9F04F106009B44FF0500080F38C
:100360001188BFF34F8FBFF36F8F18F0BDFC4FF0B4
:10037000000080F3118809BC19680868B0E8F04FE4
:100380001EF0100F08BFB0EC108A80F30988BFF38D
:100390006F8F704728000024EFF30580704700003E
:1003A000074880470748804707480047FEE7FEE7C1
:1003B000FEE7FEE7FEE7FEE7FEE7FEE7FEE7FEE715
:1003C000FD34000831E40008CD0200082DE9F05F9B
:1003D0000546002092469B468846064681464024B4
:1003E0001BE0284641464746224600F060F8534647
:1003F0005A46C01A914110D311461846224600F0C1
:1004000047F82D1A67EB01084F46224601200021CC
:1004100000F03EF817EB00094E41201EA4F1010444
:10042000DFDC484631462A464346BDE8F09F40EAB5
:1004300001039B0703D009E008C9121F08C0042A62
:10044000FAD203E011F8013B00F8013B521EF9D249
:100450007047D2B201E000F8012B491EFBD2704771
:100460000022F6E710B513460A4604461946FFF780
:10047000F0FF204610BD30B504460020034600E0E2
:100480005B1C934203D2E05CCD5C401BF8D030BDD6
:10049000202A04DB203A00FA02F100207047914044
:1004A000C2F1200320FA03F3194390407047202A39
:1004B00004DB203A21FA02F00021704721FA02F30E
:1004C000D040C2F120029140084319467047F0B471
:1004D00000F0004221F0004120F00040CE0DC30D9D
:1004E000C1F3160141F40001C0F316004C42154659
:1004F00040F40000761E09E010EB440002D582F0C3
:10050000004240428842F7D840005B1EB342F9DA0D
:1005100018B1F0BC002100F062B82846F0BC70476A
:100520002DE9FE4FC3F30A5701F000450024C1F343
:100530000A56C3F31303C1F3130143F4801312EB00
:10054000020AA64641F48011009543EB030CA7F183
:10055000010B16E0B0EB0A0061EB0C01071E71F114
:10056000000707DA4FF00008D0EB080085F00045DF
:1005700068EB0101171A73EB0107EBD3761E001825
:1005800049415E45F6DA50EA010209D0CDE900E5BD
:1005900000221346029600F05FF803B0BDE8F08F2A
:1005A00020460099F9E70000064C074D06E0E06898
:1005B00040F0010394E8070098471034AC42F6D3AA
:1005C000FFF788FED8B20108F8B201080029A8BFD9
:1005D0007047401C490008BF20F00100704710B46C
:1005E000B0FA80FC00FA0CF050EA010404BF10BC21
:1005F000704749B1CCF1200421FA04F411FA0CF14E
:1006000018BF012121430843A3EB0C01CB1D4FEA86
:1006100000614FEA102042BF002010BC704700EB81
:10062000C35010440029A4BF10BC7047401C4900AF
:1006300008BF20F0010010BC704710B5141E73F104
:10064000000408DA401C41F1000192185B411A4392
:1006500001D120F0010010BD2DE9F04D92469B46DE
:1006600011B1B1FA81F202E0B0FA80F22032904684
:10067000FFF70EFF04460F4640EA0A0041EA0B016D
:1006800053465A46084313D0114653EA010019D085
:10069000C8F140025046FFF70AFF05460E46504695
:1006A00059464246FFF7F4FE084305D0012004E016
:1006B00020463946BDE8F08D0020054346EAE07645
:1006C0002C4337430A986305E40AA0EB0800002294
:1006D000FD0A44EA47540A3002D500200146E9E702
:1006E000010510196941DDE9084500196941BDE8B6
:1006F000F04DA2E770B58C1810F8015B15F00703F8
:1007000001D110F8013B2A1106D110F8012B03E0AA
:1007100010F8016B01F8016B5B1EF9D12B0705D4B2
:100720000023521E0DD401F8013BFAE710F8013BFB
:10073000CB1A921C03E013F8015B01F8015B521E17
:10074000F9D5A142D8D3002070BD10B500F002F851
:1007500010BD000010B50CF051FB15F0EBFC0020B3
:100760001049087048608860C860087448748874CC
:100770004861087648768876C8760877487781F8A1
:1007800024008877086281F834009FED070A084644
:1007900080ED0A0A9FED040A80ED0B0A0021016337
:1007A00010BD0000188F00240000000010B500F0FC
:1007B00067F810BD0148407D70470000508F00244D
:1007C0000148807D70470000508F00240148C07DA3
:1007D00070470000508F002470B504460CB120789B
:1007E00000B970BD12F01BFF05462078042810D117
:1007F0002048407D48B11F4821884183A178017776
:1008000001201C49487600200876284612F002FF95
:10081000E7E7607858B11748407F40B160781549E4
:10082000897F884203D1284612F0F4FED9E71148A7
:10083000407D38B901200F49487500208875C8757A
:10084000087048700B49087812F08CFF68B10948AD
:1008500021884183A17801770120064908766078D4
:1008600018B16078887701204877284612F0D2FEC8
:1008700000BFB6E7508F002410B50CF06BFE10BD22
:1008800010B512F0CCFE044600200D4948750876DC
:1008900048760846002141830177204612F0BAFECF
:1008A00012F0FEFD002007490870054908704870E5
:1008B0004860086108758875C8754877887710BDE5
:1008C000508F00243A03002438B58D480078022860
:1008D00002D0FFF7D5FF38BD16F055F90446894818
:1008E000407D40B988480078032803D10121204683
:1008F00012F00CFFEFE78348007820B90021204672
:1009000012F004FFE7E7684612F05AFF18B12046DC
:1009100012F0A0FDDFE717F05DFCF0B97948007830
:1009200001280BD077480078032807D07548007855
:10093000052803D0734800780B280ED112F0B0FDC3
:1009400000207249087001206E49C8750020487562
:1009500021460D2012F020FEBDE76A4800780228EB
:1009600003D068480078092811D1684612F008FFC2
:1009700068B164480078092805D19DF8000012F09C
:10098000A7FD00B9A7E72146684612F0B9FD5D480A
:1009900000780E2871D2DFE800F0AE07AA173827DA
:1009A0003D5F87ABA428ACAD12F06AFE054635B9B1
:1009B00012F076FD2146022012F0EEFD03E0214602
:1009C000284612F033FE97E012F05AFE054635B97C
:1009D00012F066FD2146042012F0DEFD03E0214600
:1009E000284612F023FE87E000BF12F049FE0546BC
:1009F00035B912F055FD2146022012F0CDFD03E07D
:100A00002146284612F012FE76E00521204612F01B
:100A100049FE71E03B484068201A3D49096A884216
:100A200009D30120394908700CF030FF2146072016
:100A300012F0B2FD0FE033484068201A3449896A49
:100A4000884208D901202F49C875002048752146E1
:100A50000D2012F0A1FD4FE00CF0F4FF70B9002062
:100A60002A4908700120274908750420294908707F
:100A70002146082012F090FD15E037E0214840683B
:100A8000201A2349896A88420DD900201F4908701D
:100A900012F006FD01201B49C8750020487521464B
:100AA0000D2012F079FD27E016484068201A40F228
:100AB000DC51884204D32146092012F06DFD0FE07D
:100AC00010484068201A1249896A884208D90120D2
:100AD0000C49C8750020487521460D2012F05CFDB8
:100AE0000AE00921204612F0DDFD05E000BF00BF4D
:100AF00000BF00BF00BF00BF00BF00BFEBE60000AB
:100B000038030024508F00243B0300243A030024C0
:100B100090090024C801002410B50CF0ABFF0DF0C3
:100B20004BF80DF07FF8FFF741FE0DF023F810BDF4
:100B300000B599B00020119012900220139001206E
:100B4000149000201590169011A9484804F017FD44
:100B500008B102F0D0FC00200346022211460090AA
:100B6000424804F060FD08B102F0C5FC00220121FA
:100B70003E4804F067FC08B102F0BDFC00224FF0D3
:100B800038613A4804F05EFC08B102F0B4FC374822
:100B900005F0DFFB08B102F0AEFC002009900A90DE
:100BA00002200B9001200C9000200D900E9009A9BE
:100BB0002F4804F0E4FC08B102F09DFC002003463D
:100BC0000222114600902A4804F02DFD08B102F0DF
:100BD00092FC00220121264804F034FC08B102F006
:100BE0008AFC00224FF03861214804F02BFC08B148
:100BF00002F081FC1E4805F0ACFB08B102F07BFC62
:100C00000020019002900220039001200490002017
:100C10000590069001A9174804F0B1FC08B102F054
:100C20006AFC00200346022211460090114804F09D
:100C3000FAFC08B102F05FFC002201210D4804F02B
:100C400001FC08B102F057FC00224FF0386109485E
:100C500004F0F8FB08B102F04EFC064805F079FB01
:100C600008B102F048FC19B000BD0000C009002422
:100C7000600A0024000B00242DE9F04104460D46D3
:100C80002E4600270DB9BDE8F081192C05D2114878
:100C90004068401C0F494860F5E7192C03D9A4F1BE
:100CA000190087B2EE1930780F2801D1307E28B1B3
:100CB00008484068401C07494860E4E70649304658
:100CC0000DF0F4F903480068401C0249086000BFB9
:100CD000D9E70000707100244C03002410B50446CD
:100CE0000CB1012000E0002002461021014805F06F
:100CF000ABFC10BD000C025810B50020154908705F
:100D0000488008468068401C88601348D0F88800F6
:100D100048611148D0F88C0088610F480068C069AC
:100D2000C8610D48D0F8900008620B4809F09AFDA0
:100D3000352208492431084809F01AFA0549486063
:100D400008464068022803D10846C068401CC860B5
:100D500010BD0000C0590024F40D002408B50DF0AA
:100D60000DF9322000900548006800F12401044B81
:100D7000A3F1320201480EF0C9FF08BDCC0C0024DB
:100D80003E710024002141600121417070470146FD
:100D9000487870470121417000214160704702216D
:100DA0004170704701214170704700BFFEE770B588
:100DB00004460D461646042C15D007DC7CB1012CE8
:100DC0000ED0022C0DD0032C14D10BE0202C0BD014
:100DD000212C0AD0222C09D0232C0BD109E00AE0C7
:100DE00009E008E007E006E005E004E017F0BAFCDF
:100DF00001E000E000BF00BF002070BD0020704790
:100E000010B50022084909480FF03DFA0849074883
:100E10000FF02AFA0020074908700749074817F021
:100E2000BDF9002010BD0000687F00248C720024F2
:100E3000687700245D040024556600088D8701084A
:100E400070B504460D466CB165B1286850B10026F6
:100E500000BF03E0A05D17F031F9761C2868B042AE
:100E6000F8D800BF214604480FF0FEF902480FF001
:100E7000C7F9002070BD00008C7200242DE9F041FC
:100E800005460E46174600240348007808B917F0B7
:100E900069FC60B2BDE8F0815D0400242DE9F041F9
:100EA00004460D4600260A48D0F8BC72D7F8140252
:100EB00010B10120BDE8F0812A46214604480FF018
:100EC000E2F903480FF092FA06463046F2E70000D6
:100ED0008C7200241CB50024002500260027A046A3
:100EE000A14600BF17B9FFF730FC0127B8F1000F8A
:100EF00003D101F05BFC4FF00108B9F1000F03D101
:100F000011F0F8FB4FF00109FE480DF019F80BF055
:100F1000D5FB0BF089FB00286AD0FB48416F88475E
:100F200000200090034602464FF400710190F748FC
:100F300001F054FD00200090034602464FF400717A
:100F40000190F34801F04AFD00200090034602465C
:100F50004FF400710190EF4801F040FDEE489FED25
:100F6000EF2ADFEDEE1A9FEDED1ADFEDEC0A9FEDB3
:100F7000EB0AD0F800118847E9489FEDE82ADFED39
:100F8000E71A9FEDE61ADFEDE50A9FEDE40AD0F8D7
:100F900000118847E3489FEDE12ADFEDE01A9FED5D
:100FA000DF1ADFEDDE0A9FEDDD0AD0F80011884779
:100FB000DD489FEDDA2ADFEDD91A9FEDD81ADFED73
:100FC000D70A9FEDD60AD0F800118847D7489FED81
:100FD000D32ADFEDD21A9FEDD11ADFEDD00A9FEDB3
:100FE000CF0AD0F800118847012015F0BDFD79E740
:100FF000CF48007800287DD0012828D0022825D1AC
:10100000CC480078062814D2DFE800F0140A100358
:10101000070D00200CF068F80DE00CF0DFF90AE095
:101020000CF034FC07E00CF09BFA04E00BF03EFD02
:1010300001E000BF00BF00BF0BF042FF13F0E2FF72
:1010400014F016FE14F08CFD14F058F8C4E00BF008
:10105000D5FEAD4801F074FA002000900346024628
:101060004FF400710190AB4801F0B8FCAA489FED25
:10107000AB2ADFEDAA1A9FEDA91ADFEDA80A9FEDB2
:10108000A70AD0F800118847A5489FEDA42ADFEDF4
:10109000A31A9FEDA21ADFEDA10A9FEDA00AD0F8D6
:1010A000001188479F489FED9D2ADFED9C1A9FED18
:1010B0009B1ADFED9A0A9FED990AD0F80011884734
:1010C00099489FED962ADFED9C1A9FED9C1ADFED63
:1010D0009C0A9FED920AD0F80011884793489FED33
:1010E0008F2ADFED8E1A9FED8D1ADFED8C0A9FEDB2
:1010F0008B0A00E036E0D0F80011884700209149C3
:1011000008700120904908700020904908709049AB
:10111000087090490870904908709049087040F62E
:1011200034008F490968486300224FF480618D487C
:1011300005F08AFA00224FF400618A4805F084FA2B
:1011400000224FF48051874805F07EFA00224FF4C8
:101150008041854805F078FA00220221824805F096
:1011600073FA39E00BF0ACFE8048007805282BD2EA
:10117000DFE800F029030609190013F043FF23E01C
:1011800014F076FD20E06048416F88470020009011
:10119000034602464FF4007101905C4801F01EFCCA
:1011A00014F0DEFC10E05848416F884700200090A2
:1011B000034602464FF400710190544801F00EFCC2
:1011C00013F09CFF00E000BF00BF684800780328D0
:1011D00001D013F0ABFC00BF00BF4C4804F070FB23
:1011E00004464B4804F06CFB05464A4804F068FB93
:1011F00006465F480068844201D25D4804605D484D
:101200000068854201D25B4805605B480068864201
:1012100001D25948066084B958480068401C5749B3
:10122000086064280CD9394805F0ADF8374805F056
:1012300090F800205149086002E000204F49086002
:1012400085B94F480068401C4D49086064280CD996
:101250002F4805F098F82E4805F07BF80020484903
:10126000086002E000204649086086B945480068E9
:10127000401C4449086064280CD9264805F083F8CE
:10128000244805F066F800203E49086002E000208E
:101290003C4908603C480068401C3B4908602128E4
:1012A00075D3002008601C4890F8C40020B91A4883
:1012B0000021D0F8F8209047194890F8C40020B9D0
:1012C00017480021D0F8F8209047164890F8C4003D
:1012D00020B914480021D0F8F8209047124890F81F
:1012E000C40020B910480021D0F8F82090470F48DA
:1012F00090F8C40020B90D480021D0F8F82045E04E
:1013000045E000004C0300241C5A0024C0090024BE
:10131000600A0024000B00247C6B00240000000005
:10132000846C0024146800241C690024246A0024AE
:10133000380300243A030024CDCCCC3E9A99993E40
:101340006666663FC80100241003002411030024D0
:1013500012030024130300241403002415030024A3
:10136000A00B002400080258001002583903002482
:101370001C03002420030024240300242803002449
:101380002C0300243003002434030024904703205E
:1013900015F0EAFBA6E5000070B52DED048B0446C0
:1013A000B0EE408A00259FED390AF0EE408A9FEDAD
:1013B000370AF0EE409A9FED350AB0EE409A24B914
:1013C000B0EE480ABDEC048B70BD207848B984EDBE
:1013D000028A05F03FF9E06001202074B0EE480A6F
:1013E000F0E705F037F90546E068281A00EE100A24
:1013F000B8EE400ADFED260A80EE201AF0EE418AB0
:10140000F5EEC08AF1EE10FA06D99FED220AF4EE4D
:10141000C08AF1EE10FA03DD9FED1F0AF0EE408A5C
:10142000E560207C30B984ED028A0120207494EDBF
:10143000020AC7E794ED010AB5EEC00AF1EE10FA10
:1014400004D884ED028A94ED020ABBE794ED010A08
:1014500020EE280AF0EE409A94ED020A38EE400A97
:10146000B0EE409AB0EE691AF1EE690AB0EE490AA0
:1014700012F04CFCB0EE409A94ED020A30EE090AEC
:1014800084ED020A94ED020A9CE7000000000000CF
:1014900000007A44CDCCCC3D0AD7233C70B52DED6D
:1014A000048B84B004460D4616469FED810AB0EECB
:1014B000408A9FED7F0A8DED030A9FED7D0A8DED39
:1014C000020A9FED7B0AF0EE408A9FED790AB0EEAA
:1014D000409A9FED770A8DED010A9FED750A8DED1B
:1014E000000A0CB105B11EB904B0BDEC048B70BD8F
:1014F00095ED000AB0EE408A95ED010A8DED030AE4
:1015000095ED020A8DED020A95ED000A694880ED1D
:10151000000A80ED028A9DED030A80ED030A9DED2D
:10152000020A80ED040A96ED000A80ED010A02A984
:1015300003A8B0EE480A00F0C7F89DED030A5D4825
:1015400080ED050A9DED020A80ED060AD6ED000A3F
:10155000B0EE600A694601A8DDED021A9DED031A9E
:10156000F0EE480A00F036FC9DED030ADDED010ABD
:1015700030EE200A8DED030A9DED020ADDED000A32
:1015800030EE200A8DED020A9DED010A494880EDFA
:10159000090A9DED000A80ED0A0AD6ED000AB0EEB8
:1015A000600ADDED021A9DED031AF0EE480A42488A
:1015B00000F078FAF0EE408A38EE280AB0EE408A61
:1015C0003C48C0ED078A9DED021ADDED030AB0EE3E
:1015D000480A00F0BDFDB0EE409A38EE090AB0EEC0
:1015E000408A344880ED089A9DED030A3348FFF79E
:1015F000D3FE8DED030A9DED020A3148FFF7CCFEC4
:101600008DED020AB0EE480A2E48FFF7C5FEB0EE97
:10161000408A284880ED0B8A9DED030A80ED0C0A74
:101620009DED020A80ED0D0A84ED148A9DED030AFA
:1016300084ED150A9DED020A84ED160A9DED030A5C
:1016400038EE000ADDED020A30EE200A84ED180AB9
:101650009DED030A38EE400ADDED020A30EE200A65
:1016600084ED190A9DED030A38EE000ADDED020A49
:1016700030EE600A84ED1A0A9DED030A38EE400A46
:10168000DDED020A30EE600A84ED1B0A94ED180AC3
:1016900080ED0E0A94ED190A80ED0F0A94ED1A0AF6
:1016A00080ED100A94ED1B0A80ED110A00BF1BE7C4
:1016B000000000003C6400240405002448050024C8
:1016C0005C050024700500242DE9F0472DED068B04
:1016D00082B0F0EE40AA04460D469FEDD40A8DED8F
:1016E000010A9FEDD20A8DED000A9FEDD10AB0EEFE
:1016F000408A04F0AFFF064604B125B902B0BDEC44
:10170000068BBDE8F087CB48007800B9F6E7CA48F9
:10171000006810B9C84806601EE0C7480068301A63
:1017200000EE100AB8EE400ADFEDC40A80EE201A7F
:10173000B0EE418AB5EEC08AF1EE10FA06D99FEDFF
:10174000C00AB4EEC08AF1EE10FA03DD9FEDB80ACC
:10175000B0EE408AB8480660694601A812F07AF9EE
:10176000B44890ED090ADDED010A20EE200AD0ED23
:10177000090AB7EE001A71EE600AB24890ED001A3D
:1017800000EE810A80ED000AAA4890ED090ADDED1D
:10179000000A20EE200AD0ED090AB7EE001A71EE19
:1017A000600AA94890ED001A00EE810A80ED000A57
:1017B000A048D0ED011A90ED032A71EE821AB0EE26
:1017C000610AD0ED061AB0EE611AD0ED061AF1EEFC
:1017D000611AF0EE610A12F099FAF0EE409A95481B
:1017E000D0ED021A90ED042A71EE821AB0EE610A71
:1017F000D0ED061AB0EE611AD0ED061AF1EE611ABC
:10180000F0EE610A12F082FAB0EE40AA94ED001AEE
:10181000B0EE410A95ED001AF0EE410AB0EE401A22
:1018200009EEA01A84ED001AB0EE601A0AEE001A52
:1018300085ED001AB0EE6A0A12F036FD8348D0ED4D
:10184000020AB4EEE00AF1EE10FA01D2012000E043
:10185000002007467E48D0ED050AB0EE600A12F07F
:1018600023FD7448D0ED0C0AB4EEE00AF1EE10FA54
:1018700001D2012000E000208046D4ED000AB0EE45
:10188000600A12F011FDB0EE409AD5ED000AB0EEFC
:10189000600A12F009FDF0EE408A6648D0ED0A0AAF
:1018A000B0EE680AF4EEC00AF1EE10FA08D290ED3C
:1018B0000A0AB4EEC90AF1EE10FA01DD012000E0D7
:1018C000002081465B4890ED0A0AB4EEC90AF1EEA9
:1018D00010FA08D290ED0A0AB4EEE80AF1EE10FA16
:1018E00001DD012000E000208246EFB3B8F1000FD7
:1018F00047D0B9F1000F44D0524890ED000A12F0E1
:10190000D3FC4C48D0ED0B0AB4EEE00AF1EE10FA2D
:1019100037DD504800884FF6FF71884204D24D48A9
:101920000088401C4B4908804A4800880A282BDB65
:10193000404890ED070A4348D0ED000A20EE200A07
:10194000D5ED000A60EE200A3A4890ED030A00EE59
:10195000880A80ED030AD0ED051AB0EE611AD0EDC9
:10196000051AF1EE611A00E00BE0F0EE610AD0ED2D
:10197000031AB0EE610A12F0C9F92E4880ED030A8D
:1019800002E0002033490880EFB3B8F1000F47D0E0
:10199000BAF1000F44D02C4890ED000A12F084FCFC
:1019A0002448D0ED0B0AB4EEE00AF1EE10FA37DD70
:1019B000294800884FF6FF71884204D226480088E3
:1019C000401C25490880244800880A282BDB194838
:1019D00090ED080A1C48D0ED000A20EE200AD4ED54
:1019E000000A60EE200A134890ED040A00EE880A0F
:1019F00080ED040AD0ED051AB0EE611AD0ED051A9B
:101A0000F1EE611A00E00BE0F0EE610AD0ED041A8D
:101A1000B0EE610A12F07AF9064880ED040A02E09D
:101A200000200D49088000BF68E6000000000000AB
:101A30000AD7233C840500240406002400007A44CD
:101A4000CDCCCC3DFC050024000600243805002444
:101A5000C4700024080600240A06002410B52DEDE9
:101A6000028B0446B0EE408A14B9BDEC028B10BD67
:101A7000B0EE480A12F036F884ED060A9FED080A27
:101A800084ED070A84ED088A9FED050A84ED090AB2
:101A900004F0E0FDE062012084F8300000BFE4E7DC
:101AA0000000000070B52DED068B0446F0EE409A64
:101AB000B0EE608AF0EE418AB0EE619A9FED500A76
:101AC000B0EE40AA00259FED4E0AF0EE40AA04F0C9
:101AD000C1FD064624B99FED4A0ABDEC068B70BDD8
:101AE000207810B14748007828B9002084F83000E9
:101AF0009FED430AF1E7F5EEC08AF1EE10FA00BF60
:101B0000B1EE680A28FE800AB5EEC09AF1EE10FA2E
:101B100000BFF1EE490A69FE200A30EE200AB0EE5D
:101B200040AA384890ED010AB4EECA0AF1EE10FA64
:101B300001D2012000E000200546B5EEC08AF1EE9A
:101B400010FA00BFB1EE480A28FE000AF0EE40AAE3
:101B50002C4890ED020AB4EEEA0AF1EE10FA09D22E
:101B6000002084F8300028490870284805709FED4F
:101B7000240AB2E7ADB12548007810B194F83000DE
:101B800020B9B0EE690A2046FFF768FF00201E4921
:101B900008701E480570B0EE690A204600F03AF859
:101BA0009BE794F8300000B31748007820B9012073
:101BB000154908701648066015480068301A114922
:101BC000C968884207D211480570B0EE690A2046FC
:101BD00000F020F881E7002084F830000A490870FE
:101BE0000A4805709FED060A77E7002084F8300068
:101BF00005490870054805709FED010A6DE7000072
:101C000000000000380500242906002428060024CE
:101C10002C06002470B52DED068B86B00446B0EE80
:101C2000408A00259FED650AF0EE408A9FED630A29
:101C3000B0EE409A9FED610AB0EE40AA9FED5F0AB8
:101C4000F0EE40AA9FED5D0AF0EE409A2CB99FEDB0
:101C50005B0A06B0BDEC068B70BD04F0FBFC0546CC
:101C6000E06A281A00EE100AB8EE400ADFED540AC6
:101C700080EE201AF0EE418AF5EEC08AF1EE10FAFD
:101C800006D99FED500AF4EEC08AF1EE10FA03DD9A
:101C90009FED4D0AF0EE408AE56294F8300038B9C5
:101CA000B0EE480A2046FFF7D9FE9FED440AD0E780
:101CB000D4ED060A70EEC80AB0EE600A17F05EF8BE
:101CC000B0EE409A414890ED050AB0EE40AA84ED8E
:101CD000088A94ED0A0AF7EE000A30EEC00AD4ED45
:101CE000090A20EE200AD4ED0A0A00EE8A0A84EDE1
:101CF000090A94ED070AD4ED020A60EE890A00EEA3
:101D0000A80A84ED070AD4ED041AB0EE611AD4EDE6
:101D1000041AF1EE611AF0EE610AD4ED071AB0EE82
:101D2000610A11F0F3FF84ED070A94ED030AD4ED84
:101D3000090AF1EE600A20EE200AF0EE40AA94EDC6
:101D4000070AD4ED010A00EE890A30EE2A0AB1EE44
:101D5000400AF0EE409A94ED050AB0EE401A94ED78
:101D6000050AB1EE400AF0EE400AB0EE690A11F041
:101D7000CDFFF0EE409A04F06DFC06461448006872
:101D8000301A142817D31248066094ED060A8DED18
:101D9000000A8DED018A8DED029A94ED070A8DED12
:101DA000030ACDED049A94ED090A8DED050A684603
:101DB00016F028FA00BFB0EE690A4AE700000000FA
:101DC00000007A44CDCCCC3D0AD7233CC47000241B
:101DD000240600242DE9F0472DED0E8BF0EE409AFD
:101DE000B0EE60AAF0EE41AAB0EE61BA05460E462A
:101DF000002404F02FFC07469FEDCF0AB0EE408A86
:101E00009FEDCD0AF0EE40BA9FEDCB0AB0EE40CA8E
:101E10009FEDC90AF0EE408A9FEDC70AB0EE409AE6
:101E20009FEDC60A29EE800AB0EE40EAA046A14620
:101E3000B0EE6A0A12F038FAF0EE40CAB0EE4B0A81
:101E400012F032FAB0EE40DA05B11EB9BDEC0E8BDD
:101E5000BDE8F0879FEDB80A85ED000A9FEDB60A50
:101E600086ED000AB648007848B99FEDB30AB54838
:101E700080ED040A9FEDB00A80ED050AE6E7B0EEBA
:101E80004A0A12F011FAAE48D0ED020AB4EEE00AA6
:101E9000F1EE10FA09DD9FEDA80AAA4880ED040AC8
:101EA0009FEDA50A80ED050AD0E716F093F960B919
:101EB0000020A44908709FEDA00A084680ED040A9E
:101EC0009FED9D0A80ED050AC0E716F063F9044610
:101ED0009C48007868B901209A49087094ED000A7E
:101EE000084680ED010A94ED010A80ED020AC76000
:101EF000ACE79448C068381A00EE100AB8EE400A01
:101F0000DFED910A20EE200AB0EE408A9FED8F0AA5
:101F1000B4EEC08AF1EE10FA07D9894890ED070AAD
:101F2000B4EEC80AF1EE10FA0AD294ED000A854820
:101F300080ED010A94ED010A80ED020AC76085E791
:101F400094ED000A7F48D0ED010A30EE600AF0EE11
:101F500040BA94ED010AD0ED020A30EE600AB0EE0C
:101F600040CA94ED000A80ED010A94ED010A80ED6B
:101F7000020AC760B0EE4E0A10F0DEFC60EE2BDA0B
:101F8000B0EE4E0A10F056FE40EE0CDA8DEE880AE6
:101F9000F0EE408AB0EE4E0A10F04CFE60EE2BDA06
:101FA000B0EE4E0A10F0C8FC40EE4CDA8DEE880A16
:101FB000B0EE409A624890ED010AB4EEEC0AF1EE00
:101FC00010FA08D290ED010AB4EECD0AF1EE10FA43
:101FD00001DD012000E000208046594890ED010A13
:101FE000B4EECD0AF1EE10FA08D290ED010AB4EE8B
:101FF000EC0AF1EE10FA01DD012000E0002081463C
:10200000B8F1000F44D0F0EE49DA4E4890ED050AE1
:102010000DEE880A80ED050A4948D0ED051AB0EEAC
:10202000611AD0ED051AF1EE611AF0EE610A454829
:10203000D0ED051AB0EE610A11F068FE414880ED5E
:10204000050A3F4890ED040A3E48D0ED050A20EE0F
:10205000200A3B48D0ED030A10EEED0A86ED000A97
:10206000D0ED061AB0EE611AD0ED061AF1EE611A43
:10207000F0EE610AD6ED001AB0EE610A11F046FEEC
:1020800086ED000A9FED2C0A2E4880ED040A50E0F0
:10209000B9F1000F44D0F0EE68DA2A4890ED040A56
:1020A0000DEE880A80ED040A2548D0ED051AB0EE41
:1020B000611AD0ED051AF1EE611AF0EE610A2148BD
:1020C000D0ED041AB0EE610A11F020FE1D4880ED3B
:1020D000040A1B4890ED040A1A48D0ED040A20EEC9
:1020E000200A1748D0ED030A10EEED0A85ED000A2C
:1020F000D0ED061AB0EE611AD0ED061AF1EE611AB3
:10210000F0EE610AD5ED001AB0EE610A11F0FEFDA5
:1021100085ED000A9FED080A0A4880ED050A08E0EF
:102120009FED050A074880ED040A9FED030A80ED44
:10213000050A00BF8AE600000000000035FA8E3C68
:10214000DC0500246C8E00246F12833A17B7D13857
:102150002DE9F0412DED0A8BB0EE40CAB0EE608A59
:10216000F0EE418AA148007828B99FEDA10ABDECA4
:102170000A8BBDE8F08104F06DFA0446B0EE480A1F
:1021800012F092F8B0EE40BAB0EE680A12F08CF895
:102190007BEE00BA954890ED010AB4EEEB0AF1EE41
:1021A00010FA01D2012000E000200546914890ED90
:1021B000000A78EE409A904890ED000A38EEC0AAE6
:1021C000B0EE690A12F070F8B0EE40BAB0EE4A0A0A
:1021D00012F06AF87BEE00AA8848007850B94DB139
:1021E000824890ED020AB4EEEA0AF1EE10FA01D24A
:1021F000012000E00020064680480078C0B1BDB94B
:102200007C4890ED000A12F04FF8B0EE40BA7A48E0
:1022100090ED000A12F048F83BEE000A7348D0ED4A
:10222000010AB4EEE00AF1EE10FA01DD012000E04F
:10223000002007469FED6E9AB0EE4C0A12F034F87B
:102240006F48D0ED020AB4EEE00AF1EE10FA0ADDB2
:102250006A480570674880ED008A6748C0ED008ACB
:102260009FED630A83E706B987B3B7EE000AB0EEC5
:1022700040BA644804605D4890ED020AB5EEC00AB9
:10228000F1EE10FA05DD90ED020ACAEE800AB0EE1A
:1022900060BA564890ED070AB0EE401ADFED540AD6
:1022A000B0EE4B0A11F032FDB0EE40BAB5EEC0AA66
:1022B000F1EE10FA02DDB7EE000A0AE0B5EEC0AAB0
:1022C000F1EE10FA03D2BFEE000A02E01EE09FED2D
:1022D000480A20EE0B0A4C4880ED000AF5EEC09A41
:1022E000F1EE10FA02DDB7EE000A09E0F5EEC09A51
:1022F000F1EE10FA02D2BFEE000A01E09FED3C0AB7
:1023000020EE0B0A414880ED000A00BF3D480068FE
:10231000201A3649C968884250D2B7EE000AB0EE9A
:1023200040BA3248C068F0B136480068201A00EE62
:10233000100AF8EE400A2D48C06800EE100AB8EE08
:10234000401A80EE810AF7EE000A30EEC00AB0EEC5
:1023500040BAB7EE001ADFED260AB0EE4B0A11F0D4
:10236000D5FCB0EE40BA214890ED040AF1EE400AE7
:10237000274890ED051AB0EE490A00EE810AB0EE4A
:10238000409A1A4890ED050A1F48D0ED000A60EE09
:10239000200AB0EE490A00EE8B0AB0EE409A1348CC
:1023A00090ED060A1948D0ED000A60EE200AB0EE62
:1023B000490A00EE8B0AB0EE409A00BF0F48057044
:1023C0000C4880ED008A0C48C0ED008A074890ED6B
:1023D000080AB0EE401A90ED080AB1EE400AF0EE9D
:1023E000400AB0EE490A11F091FCC0E6B80500249D
:1023F0000000000010060024140600240C0600242F
:1024000038050024180600241C0600242006002499
:10241000C47000241FB50446002001900290039070
:102420009FED390A8DED000A01A9204611F03AFA14
:10243000364890ED0B0A8DED000A6A4601A9204648
:10244000FFF72CF83248D0ED180A9FED321A60EEF3
:10245000810AB0EE600A3048D0F8901188472C48C5
:10246000D0ED190A9FED2B1A60EE810AB0EE600ADA
:102470002A48D0F8901188472548D0ED1A0A9FEDD8
:10248000251A60EE810AB0EE600A2548D0F8901156
:1024900088471F48D0ED1B0A9FED1E1A60EE810A87
:1024A000B0EE600A1F48D0F8901188471848D0ED68
:1024B000180A9FED1D1A60EE810AB0EE600A1B48F3
:1024C000D0F8901188471248D0ED190A9FED161ADE
:1024D00060EE810AB0EE600A1548D0F89011884786
:1024E0001448D0F89011144890ED000A114888471C
:1024F0001248D0F89011104890ED000AB1EE400A51
:102500000E4888471FBD000000000000C470002472
:102510001C5A002400004842945A0024305C0024D5
:10252000CC5D0024685F002400004843046100245F
:10253000A06200248C6D0024C0020024286F0024B7
:102540001CB5044604B91CBD2046FFF763FF2048B4
:1025500090ED3B0ABDEEC00A10EE100A00B21D4914
:1025600091ED3B0ABDEEC00A10EE101A09B2CDE99A
:102570000010194890ED3B0ABDEEC00A10EE100A9B
:1025800003B2164890ED3B0ABDEEC00A10EE100AE9
:1025900002B24FF40071124800F020FA00200090BF
:1025A0000190104890ED3B0ABDEEC00A10EE100AF3
:1025B00003B20D4890ED3B0ABDEEC00A10EE100AC2
:1025C00002B24FF40071094800F008FA00BFBAE700
:1025D000685F0024CC5D0024305C0024945A002401
:1025E000C0090024A062002404610024600A0024C1
:1025F0001FB5002137480BF075FE364881688847C3
:10260000354801210022CDE90012344B40F201226D
:10261000CDE902104902324800F08EF9314801211B
:102620000022CDE900122D4B40F20222CDE902102A
:1026300049022D4800F080F92C4801210022CDE903
:102640000012264B40F20322CDE90210490228482D
:1026500000F072F9274801210022CDE900121F4B3A
:102660004FF40172CDE902104902234800F064F9E9
:102670002248012100220092214BCDE90121039043
:1026800040F2012249021F4800F056F91E4801217C
:10269000002200921A4BCDE90121039040F2022260
:1026A00049021A4800F048F90A480D49426C90471F
:1026B00008480D49426C904706480D49426C9047C6
:1026C00004480D49426C9047114802490867114877
:1026D00048671FBD1C5A002434010024C00900248F
:1026E000945A00244C010024305C0024640100242E
:1026F000CC5D00247C010024685F00249401002448
:10270000600A002404610024AC010024A0620024BB
:1027100015240008192700089FED1D0A80ED140AF2
:102720009FED1B0A80ED150A9FED190A80ED160A30
:102730009FED170A80ED180A9FED150A80ED190A22
:102740009FED130A80ED1A0A9FED110A80ED1B0A16
:102750009FED0F0A0F4981ED3B0A9FED0D0A0E49CF
:1027600081ED3B0A9FED0A0A0C4981ED3B0A9FED82
:10277000080A0B4981ED3B0A9FED050A094981EDE5
:102780003B0A9FED030A084981ED3B0A70470000B0
:1027900000000000945A0024305C0024CC5D00242A
:1027A000685F002404610024A062002410B503F0D7
:1027B00051FF04460020054908704860204611F08A
:1027C00043FA11F0F7F911F0EBF910BD6C08002491
:1027D00010B503F03FFF0446204611F043FA2648A7
:1027E000007830B1012814D0022827D0032838D12E
:1027F00032E011F0DFF911F0D3F9204611F00AFAB6
:1028000030B111F0C3F91C48446001201A49087026
:102810002FE0204611F0E2F928B111F0C1F90020B3
:102820001549087025E014484068201AC82804D3C8
:1028300011F0CAF90220104908701AE011F0C4F929
:1028400011F0A4F9204611F0C9F920B111F0A8F94E
:102850000020094908700CE011F0B6F911F0A0F958
:1028600007E000200449087011F0A4F911F098F96C
:1028700000BF00BF10BD00006C0800244A780B7830
:1028800042EA0322A0F86C21B0F86C21A0F8702174
:102890007047027F5AB1012A05D0022A02D0062AC7
:1028A00046D100BF00BF8A7980F86A2100BF00F5D9
:1028B000B270028942814A780B7842EA032202818F
:1028C000CA788B7842EA032212B202804A790B79E5
:1028D00042EA032212B26FF0040392FBF3F212B247
:1028E000428002894389A0F5B270D21AB2F5805FA6
:1028F00005DDD0F87421521EC0F874210CE0B0F848
:102900006C21B0F86E31D21A12F5805F04DAD0F87B
:102910007421521CC0F87421B0F86C31D0F87421C5
:1029200003EB4232B0F87031D21AC0F8782100E0DF
:1029300000BF00BF704700002DE9F84F04468B46EA
:1029400015461E460AAF97E88007E9B23B46324675
:102950002046CDF8008009F023FE04F5B07424F879
:10296000A05C1B4860631B48A0631B4820630020D9
:10297000A080E0802081A072A081E081208260613F
:10298000A06120772085E062A4F5B074002104F5F1
:10299000BF70C4F87E11C4F88211A4F88611607F5C
:1029A00058B1012802D002280FD10DE05246494605
:1029B00004F58A700AF03EF807E05246494604F1F1
:1029C000C4000AF037F800E000BF00BFBDE8F88F90
:1029D000932800087D280008C9C600082DE9F043A7
:1029E0008BB081460E4614461D46DDE912780296EC
:1029F0000020039004900820059000200690079086
:102A0000089009900A90200A8DF80000E0B28DF835
:102A10000100280A8DF80200E8B28DF80300380A98
:102A20008DF80400F8B28DF805004FEA18208DF8F3
:102A3000060008F0FF008DF807006A4602A9484624
:102A400002F054FD0BB0BDE8F083000010B5024861
:102A500001F0DEFC10BD00002810002410B5024873
:102A600001F0D6FC10BD0000B00F00240146374A2B
:102A70000868904249D0354A18320868904244D0DC
:102A8000324A3032086890423FD0304A48320868B3
:102A900090423AD02D4A60320868904235D02B4A95
:102AA00078320868904230D0284A903208689042C4
:102AB0002BD0264AA8320868904226D0244A0868BB
:102AC000904222D0224A1832086890421DD0204AF3
:102AD00030320868904218D01D4A48320868904247
:102AE00013D01B4A6032086890420ED0184A7832E0
:102AF0000868904209D0164A90320868904204D083
:102B0000134AA8320868904201D1012000E0002059
:102B1000B0B10A78103A1823B2FBF3F000F00702C4
:102B20000C4B9A5CCA65032805D90A686FF3090241
:102B3000121D8A6503E00A686FF309028A6503E0E3
:102B4000086820F0FF008865886D7047100002401B
:102B500010040240F8AE010810B502682B4C03685F
:102B6000A34222D0294C14340368A3421DD0274C21
:102B700028340368A34218D0244C3C340368A34291
:102B800013D0224C50340368A3420ED01F4C64343F
:102B90000368A34209D01D4C78340368A34204D0D3
:102BA0001A4C8C340368A34201D1012300E00023B6
:102BB0008BB10378083B1424B3FBF4F1144B03EB03
:102BC00081030366124B8033436601F01F04012327
:102BD000A340836618E00378103B1824B3FBF4F19C
:102BE0000C4B9A4204D80B4BA83B9A4200D30831B5
:102BF000094B03EB81030366074B8033436601F007
:102C00001F040123A340836610BD0000085402582E
:102C100000580258B8040240000802400179A9B3E4
:102C2000082940D8204B02689A4222D01E4B143308
:102C300002689A421DD01C4B283302689A4218D071
:102C4000194B3C3302689A4213D0174B5033026839
:102C50009A420ED0144B643302689A4209D0124B48
:102C6000783302689A4204D00F4B8C3302689A4240
:102C700001D1012200E000224AB14A1E0B4B03EBB6
:102C80008202C266094A4032026708E00BE04A1E2F
:102C9000074B03EB8202C266054A403202674A1EB6
:102CA0000123934043677047085402580059025863
:102CB00000090240014600208A69D2B98A6A32B10D
:102CC000012A0DD0022A03D0032A10D10EE000BF42
:102CD000CA6A02F08072B2F1807F00D1012007E061
:102CE000CA6AB2F1C07F00D1012001E000E000BF5C
:102CF00036E08A69B2F5005F1BD18A6A32B1012AD7
:102D000007D0022A03D0032A11D10AE000BF012014
:102D10000EE0CA6A02F08072B2F1807F00D1012019
:102D200006E0CA6AB2F1C07F00D1012000E000BF16
:102D300016E08A6A32B1012A05D0022A04D0032A99
:102D40000CD103E000BF00BF012008E0CA6A02F016
:102D50008072B2F1807F00D1012000E000BF00BF8F
:102D60007047000030B5384D0468AC4249D0364D4C
:102D700018350468AC4244D0334D30350468AC4259
:102D80003FD0314D48350468AC423AD02E4D6035C5
:102D90000468AC4235D02C4D78350468AC4230D054
:102DA000294D90350468AC422BD0274DA8350468D6
:102DB000AC4226D0254D0468AC4222D0234D1835B4
:102DC0000468AC421DD0214D30350468AC4218D0A7
:102DD0001E4D48350468AC4213D01C4D6035046864
:102DE000AC420ED0194D78350468AC4209D0174D6D
:102DF00090350468AC4204D0144DA8350468AC4248
:102E000001D1012400E0002474B104686360846887
:102E1000402C04D10468A2600468E16012E00468F8
:102E2000A1600468E2600DE0046863608468402C7F
:102E300004D10468A2600468E16003E00468A16052
:102E40000468E26030BD000010000240100402403F
:102E500030B58BB004460D46A07F02900020039051
:102E60000490082005900020069007900890099093
:102E70000A90FF208DF800008DF801008DF8020007
:102E80008DF803008DF804008DF805008DF806001C
:102E900035B1012D0BD0022D10D0032D16D111E02C
:102EA000FC208DF80700012084F8C4000FE0FD200D
:102EB0008DF80700002084F8C40008E0FE208DF89B
:102EC000070004E0FB208DF8070000E000BF00BF12
:102ED0006A4602A904F1200002F008FB0BB030BDE5
:102EE0002DE9F0412DED048B04460D46A878697854
:102EF00040EA0126E8780001297940EA211768793B
:102F0000297901F00F0140EA0128B2EE090AF0EE3A
:102F1000408AB3EE0E0AB0EE408AB2EE040AB0EE7A
:102F2000409A207F001F072846D2DFE800F01E11DC
:102F3000454504382B00B2EE090AF0EE408AB3EEA4
:102F40000E0AB0EE408AB2EE040AB0EE409A34E0C7
:102F5000B2EE090AF0EE408AB3EE0E0AB0EE408AF5
:102F6000B2EE040AB0EE409A27E09FED6B0AF0EE55
:102F7000408A9FED6A0AB0EE408AB2EE040AB0EED3
:102F8000409A1AE0B2EE090AF0EE408AB3EE0E0A59
:102F9000B0EE408AB2EE040AB0EE409A0DE0B2EE16
:102FA000090AF0EE408AB3EE0E0AB0EE408AB2EEA5
:102FB000040AB0EE409A00E000BF00BF287800117C
:102FC00084F8C40094ED320A84ED330A1021F0EE47
:102FD000680AB1EE680A304615F09AFB84ED320AB1
:102FE0000C21F0EE480AB1EE480A384615F090FB85
:102FF00084ED350A94ED350AF0EEC00A9FED480ADB
:1030000028EE000AF4EEC00AF1EE10FA03DB9FEDA1
:10301000450A84ED350A0C21F0EE490AB1EE490A61
:10302000404615F075FB84ED360AA87900EE100ACB
:10303000B8EE400ABCEEC00A10EE100A84F8DC00BC
:10304000E87900EE100AB8EE400ABCEEC00A10EEB5
:10305000100A84F8DD0094ED320AD4ED330A30EE24
:10306000600ADFED310AB4EEE00AF1EE10FA05DD98
:10307000D4F8E000001FC4F8E00011E094ED320A3B
:10308000D4ED330A30EE600ADFED280AB4EEE00A30
:10309000F1EE10FA04D2D4F8E000001DC4F8E0000C
:1030A00094ED321AB7EEC11AB0EE410B9FED201B22
:1030B0000FF0EAFCB7EEC00B84ED340A94ED340A4D
:1030C000DFED1D0AB4EEE00AF1EE10FA08DD94ED32
:1030D000340ADFED150A30EE600A84ED340A10E0A0
:1030E00094ED340ADFED150AB4EEE00AF1EE10FAC1
:1030F00007D294ED340ADFED0C0A30EE200A84ED9D
:10310000340A94F8C40010B9012084F8C400BDEC5E
:10311000048BBDE8F0810000560E494100003442A6
:10312000E3A57B3F00000000D00FC940D00FC9C00D
:1031300000000000FA211940D00F4940D00F49C0CB
:103140002DE9F84304460D4616461F46DDE9088979
:10315000E9B243463A462046CDF8009009F020FAFD
:10316000C43466700F4860630F48E0630F48206402
:103170000F48A0639FED0F0A84ED010A9FED0D0A31
:1031800084ED020A9FED0B0A84ED030A9FED090A04
:1031900084ED040A9FED070A84ED050AC43CBDE8EE
:1031A000F8830000512E0008B93100088D34000862
:1031B000E12E0008000000002DE9F0432DED068B04
:1031C0008BB00546B0EE40AAB0EE608AF0EE418AC0
:1031D000B0EE619AF0EE429AA87F02900020039030
:1031E0000490082005900020069007900890099010
:1031F0000A90287F001F072856D2DFE800F0051547
:1032000055042535450000BF9FED990A994880ED8A
:10321000000A9FED990A994880ED000AB2EE040A6F
:10322000974880ED000A40E09FED910A914880EDBB
:10323000000A9FED910A914880ED000AB2EE040A5F
:103240008F4880ED000A30E0B2EE090A894880ED2F
:10325000000AB3EE0E0A894880ED000AB2EE040AB5
:10326000874880ED000A20E0B2EE090A814880ED2F
:10327000000AB3EE0E0A814880ED000AB2EE040A9D
:103280007F4880ED000A10E0B2EE090A794880ED2F
:10329000000AB3EE0E0A794880ED000AB2EE040A85
:1032A000774880ED000A00E000BF00BF687FE8B308
:1032B000012802D0022838D16FE010206D4991ED2D
:1032C000001A91ED000AF1EE400AB0EE4A0A11F040
:1032D0002FF906460C20694991ED001A91ED000A7C
:1032E000F1EE400AB0EE480A11F022F907460C2030
:1032F0009FED641ADFED630AB0EE690A11F018F968
:1033000080460C209FED601ADFED5E0AB0EE680A81
:1033100011F00EF981460C20B1EE041ADFED590AC6
:10332000B0EE490A11F004F9044672E0FFE71020FC
:103330009FED541ADFED530A9FED520A11F0F8F891
:1033400006460C204D4991ED001A91ED000AF1EE70
:10335000400AB0EE480A11F0EBF807460C209FED4A
:10336000491ADFED480A9FED470A11F0E1F880465F
:103370000C209FED441ADFED430A9FED420A11F045
:10338000D7F881460C20B1EE041ADFED3E0AB0EE0C
:10339000490A11F0CDF804463BE01020354991ED83
:1033A000001A91ED000AF1EE400AB0EE4A0A11F05F
:1033B000BFF806460C20314991ED001A91ED000A44
:1033C000F1EE400AB0EE480A11F0B2F807460C20C0
:1033D0002B4991ED001A91ED000AF1EE400AB0EE92
:1033E000690A11F0A5F880460C209FED271ADFED41
:1033F000250AB0EE680A11F09BF881460C20B1EE68
:10340000041ADFED200AB0EE490A11F091F80446E3
:1034100000BF00BF30128DF80000F0B28DF801003F
:10342000C7F307108DF802003807000E40EA292084
:103430008DF8030009F0FF008DF80400C4F30710B5
:103440008DF805002007000E40EA28208DF80600C0
:1034500008F0FF008DF807006A4602A905F1200078
:1034600002F044F80BB0BDEC068BBDE8F083000021
:103470003411494124010024000034422801002471
:103480002C010024000000000000FA4371B52DED6E
:10349000020B8BB006460BAC0CADB07F0290002047
:1034A0000390049008200590002006900790089053
:1034B00009900A9020788DF8000060788DF801005E
:1034C000A0788DF80200E0788DF8030028788DF858
:1034D000040068788DF80500A8788DF80600E87873
:1034E0008DF807006A4602A906F1200001F0FEFFF0
:1034F0000EB070BD704772B600BFFEE707480068A7
:1035000040F002000549086000BF04480838006820
:1035100000F400500028F8D0704700000C48025812
:1035200010B5024802F0D4F910BD0000C009002413
:1035300010B5024802F0CCF910BD0000600A00246A
:1035400010B5024802F0C4F910BD0000000B0024C1
:1035500010B501464A6B0868D0F884004FF6FC7439
:10356000A04340EA82000C68C4F884000868D0F8E0
:10357000840020F47F04088F44EA00400C68C4F8FB
:103580008400886B02440868D0F888004FF6FC7409
:10359000A04340EA82000C68C4F888000868D0F8AC
:1035A000880020F4FE04888F44EA00400C68C4F8C8
:1035B0008800C86B02EB40020868D0F8A0004FF604
:1035C000FC74A04340EA82000C68C4F8A0000868BC
:1035D000D0F8A00020F4FE044020405A44EA004005
:1035E0000C68C4F8A000D1E9104004FB0022086870
:1035F000D0F8B0004FF6FC74A04340EA82000C689B
:10360000C4F8B0000868D0F8B00020F4FE04B1F8A7
:10361000480044EA00400C68C4F8B000D1E9124008
:1036200004FB00220868D0F8AC004FF6FC74A043FD
:1036300040EA82000C68C4F8AC00D1E9144004FBF5
:1036400000220868D0F8F0004FF6FC74A04340EA6E
:1036500082000C68C4F8F0000868D0F8F00020F48C
:103660007C14B1F8580044EA00400C68C4F8F0003B
:10367000886D02EB40020868D0F8C0004FF6FC7479
:10368000A04340EA82000C68C4F8C0000868D0F883
:10369000C00020F47C14B1F85C0044EA00400C68DF
:1036A000C4F8C0000868D0F8C00020F07C5491F83D
:1036B000600044EA00600C68C4F8C0002A4C486B03
:1036C00004EB8000C866CC6E886B04EB80040C674A
:1036D0000C6FC86B04EBC0044C67D1E91004604365
:1036E0004C6F04EB80048C67D1E9120460438C6F4B
:1036F00004EB8004CC67D1E914046043CC6F04EB85
:103700008004802044504458886D04EBC004842019
:1037100044508C6EC86D60438424645804EB80046C
:10372000882044508C6E086E60438824645804EBF3
:1037300080049020445040580C4CA04209D9983144
:10374000486840F020004860032001F898090120F3
:1037500010BDCB6E02E0002018601B1D9020405869
:103760009842F8D80020F3E700AC0040FCD30040BA
:103770002DE9F041054614461E46D1F804C0BCF1BF
:10378000000F0AD1D1F810C0D1F808804CEA080C1B
:10379000B1F800804CEA88430BE0D1F810C04CF03F
:1037A000804CD1F808804CEA080CD1F800804CEA33
:1037B000080391F82080D1F81CC04CEA086CD1F8BD
:1037C00018804CEA080CD1F814804CEA080CB1F8C7
:1037D0000C804CEA0847D5F868C00CFB06FCD5F80D
:1037E000848008EB8C021360121D1760121D0020EC
:1037F00019E000F1030C14F80CC04FEA0C6800F15A
:10380000020C14F80CC048EA0C4800F1010C14F842
:103810000CC048EA0C2C14F800804CEA080CC2F8E2
:1038200000C0121D001DDFF81480D1F80CC018F87C
:103830000CC08445DDD8BDE8F081000000AF010870
:1038400070B50A480468001D0568001D0668344408
:1038500054B108220649204607F0F9FF0422044922
:103860001031284607F0F3FF70BD000000E8F11F9B
:10387000420400242DE9F04704460F4690461E46B8
:10388000DDF820904FF0000AA068802804D14000A5
:1038900060654FF0010A75E100BF94F8340001281B
:1038A00002D10220BDE8F087012084F8340000BF77
:1038B00094F8350001287DD1022084F835000020DD
:1038C0006065B1492068884249D0AF491831206805
:1038D000884244D0AC493031206888423FD0AA4960
:1038E0004831206888423AD0A74960312068884230
:1038F00035D0A54978312068884230D0A24990312E
:10390000206888422BD0A049A8312068884226D060
:103910009E492068884222D09C49183120688842FC
:103920001DD09A4930312068884218D097494831D3
:103930002068884213D095496031206888420ED0B3
:10394000924978312068884209D0904990312068A6
:10395000884204D08D49A8312068884201D10120D5
:1039600000E0002090B12068006840F480202168C9
:10397000086020680661A06D00F1080594F85C00FD
:1039800000F01F013F208840286011E02068006897
:1039900048F2200108432168086020680661A06D94
:1039A000051D94F85C0000F01F010120884028608C
:1039B000754900E0E1E02068884270D07249183112
:1039C000206888426BD0704930312068884266D0C8
:1039D0006D4948312068884261D06B496031206868
:1039E00088425CD0684978312068884257D066495F
:1039F00090312068884252D06349A83120688842BB
:103A00004DD062492068884249D060491831206809
:103A1000884244D05D493031206888423FD05B49BC
:103A20004831206888423AD058496031206888423D
:103A300035D0564978312068884230D0534990318A
:103A4000206888422BD05149A8312068884226D06E
:103A50004F492068884222D04D491431206888425D
:103A60001DD04B4928312068884218D048493C3144
:103A70002068884213D046495031206888420ED0D1
:103A8000434964312068884209D04149783120682F
:103A9000884204D03E498C312068884201D10120FF
:103AA00000E0002068B14B46424639462046FFF709
:103AB00059F9D4E919104860E06E10B1D4E91C102E
:103AC000486031492068884249D02F491831206820
:103AD000884244D02C493031206888423FD02A495E
:103AE0004831206888423AD02749603120688842AE
:103AF00035D0254978312068884230D0224990312C
:103B0000206888422BD02049A8312068884226D0DE
:103B10001E492068884222D01C49183120688842FA
:103B20001DD01A4930312068884218D017494831D1
:103B30002068884213D015496031206888420ED031
:103B4000124978312068884209D0104990312068A4
:103B5000884204D00D49A8312068884206D12068E7
:103B6000006840F00100216808600BE020680068F0
:103B700040F001002168086004E04FF400606065D7
:103B80004FF0010A50468DE610000240100402403A
:103B9000085402582DE9F041044602F05BFD8046CE
:103BA00014B90120BDE8F08194F83500022808D04E
:103BB0008020606500BF002084F8340000BF012031
:103BC000F0E7FE492068884249D0FC491831206856
:103BD000884244D0F9493031206888423FD0F749C3
:103BE0004831206888423AD0F449603120688842E0
:103BF00035D0F24978312068884230D0EF49903191
:103C0000206888422BD0ED49A8312068884226D010
:103C1000EB492068884222D0E9491831206888425F
:103C20001DD0E74930312068884218D0E449483136
:103C30002068884213D0E2496031206888420ED063
:103C4000DF4978312068884209D0DD499031206809
:103C5000884204D0DA49A8312068884206D1206819
:103C6000006820F001002168086005E02068006815
:103C700020F0010021680860D0492068884249D0BE
:103C8000CE4918312068884244D0CC493031206870
:103C900088423FD0C9494831206888423AD0C74954
:103CA00060312068884235D0C44978312068884224
:103CB00030D0C2499031206888422BD0BF49A8310A
:103CC0002068884226D0BE492068884222D0BC495C
:103CD0001831206888421DD0B949303120688842A7
:103CE00018D0B74948312068884213D0B4496031B0
:103CF000206888420ED0B24978312068884209D0C5
:103D0000AF4990312068884204D0AD49A83120687D
:103D1000884201D1012000E0002068B120680068DD
:103D200020F01E00216808602068406920F08000B3
:103D300021684861256806E02068006820F00E00D0
:103D40002168086025689D492068884270D09B4999
:103D50001831206888426BD09849303120688842F9
:103D600066D0964948312068884261D093496031D5
:103D7000206888425CD0914978312068884257D0C9
:103D80008E4990312068884252D08C49A8312068F1
:103D900088424DD08A492068884249D088491831E4
:103DA0002068884244D086493031206888423FD01C
:103DB00083494831206888423AD08149603120687F
:103DC000884235D07E4978312068884230D07C499D
:103DD0009031206888422BD07949A83120688842E8
:103DE00026D078492068884222D07649143120684C
:103DF00088421DD0734928312068884218D0714903
:103E00003C312068884213D06E4950312068884286
:103E10000ED06C4964312068884209D069497831F4
:103E20002068884204D067498C312068884201D1DB
:103E3000012000E0002028B1206E006820F480708E
:103E4000216E086011E002F005FCA0EB08000528D7
:103E50000BD920206065032084F8350000BF0020C6
:103E600084F8340000BF01209CE6286800F00100BF
:103E70000028E8D151492068884249D04F4918317B
:103E80002068884244D04D493031206888423FD074
:103E90004A494831206888423AD048496031206810
:103EA000884235D0454978312068884230D043492E
:103EB0009031206888422BD04049A8312068884240
:103EC00026D03F492068884222D03D4918312068D9
:103ED00088421DD03A4930312068884218D038498C
:103EE00048312068884213D03549603120688842C3
:103EF0000ED0334978312068884209D0304990315A
:103F00002068884204D02E49A8312068884201D117
:103F1000012000E0002040B1A66D94F85C0000F0A4
:103F20001F013F208840B06007E0A76D94F85C0057
:103F300000F01F01012088407860204920688842F5
:103F400076D01E4918312068884271D01B49303123
:103F5000206888426CD0194948312068884267D06F
:103F6000164960312068884262D01449783120684F
:103F700088425DD0114990312068884258D00F495D
:103F8000A8312068884253D00D49206888424FD01C
:103F90000B491831206888424AD0094930312068DD
:103FA000884245D0064948312068884240D00449BB
:103FB0006031206888423BD0014905E01000024092
:103FC00010040240085402587831206888422FD0EB
:103FD0002549206888422BD023491831206888421F
:103FE00026D022492068884222D0204914312068F6
:103FF00088421DD01D4928312068884218D01B49AD
:104000003C312068884213D01849503120688842DA
:104010000ED0164964312068884209D0134978319E
:104020002068884204D011498C312068884201D12F
:10403000012000E0002068B1D4E919104860E06E6A
:1040400040B1E06E006820F48070E16E0860D4E951
:104050001C104860012084F8350000BF002084F85F
:10406000340000BF00BF9DE5A00402400854025880
:1040700070B504460CB9012070BD94F835000228D3
:1040800003D0802060650120F6E7DC492068884283
:1040900049D0DA4918312068884244D0D7493031B4
:1040A000206888423FD0D5494831206888423AD0BC
:1040B000D24960312068884235D0D04978312068B3
:1040C000884230D0CD499031206888422BD0CB49EE
:1040D000A8312068884226D0C9492068884222D069
:1040E000C7491831206888421DD0C5493031206841
:1040F000884218D0C24948312068884213D0C0494C
:104100006031206888420ED0BD49783120688842ED
:1041100009D0BB4990312068884204D0B849A83101
:104120002068884201D1012000E00020F0B3042083
:1041300084F83500B149206888424BD0AF49183126
:104140002068884246D0AD4930312068884241D04D
:10415000AA494831206888423CD0A849603120688B
:10416000884237D0A54978312068884232D0A349A7
:104170009031206888422DD0A049A831206888421B
:1041800028D09F492068884224D09D491831206852
:1041900088421FD09A493031206888421AD0984905
:1041A00048312068884215D0954900E020E0603110
:1041B000206888420ED0924978312068884209D020
:1041C0008F4990312068884204D08D49A8312068F9
:1041D000884206D12068006820F00100216808604C
:1041E00009E12068006820F001002168086002E110
:1041F00082492068884249D0804918312068884225
:1042000044D07E493031206888423FD07B494831D4
:10421000206888423AD0794960312068884235D098
:10422000764978312068884230D0744990312068CE
:1042300088422BD07149A8312068884226D0704925
:104240002068884222D06E491831206888421DD0EB
:104250006B4930312068884218D06949483120685C
:10426000884213D066496031206888420ED0644984
:1042700078312068884209D06149903120688842AD
:1042800004D05F49A8312068884206D120680068C0
:1042900020F001002168086005E02068006820F037
:1042A0000100216808602068006820F00E00216885
:1042B000086052492068884270D0504918312068FF
:1042C00088426BD04D4930312068884266D04B49D6
:1042D00048312068884261D048496031206888426E
:1042E0005CD0464978312068884257D043499031A4
:1042F0002068884252D04149A831206888424DD078
:104300003F492068884249D03D4918312068884299
:1043100044D03B493031206888423FD03849483149
:10432000206888423AD0364960312068884235D0CA
:10433000334978312068884230D031499031206843
:1043400088422BD02E49A8312068884226D02D499A
:104350002068884222D02B491431206888421DD021
:10436000284928312068884218D026493C312068E5
:10437000884213D023495031206888420ED0214909
:1043800064312068884209D01E497831206888420B
:1043900004D01C498C312068884201D1012000E002
:1043A0000020D8B1206E006820F48070216E086073
:1043B000A56D94F85C0000F01F0101208840686042
:1043C000D4E919104860E06E40B1E06E006820F456
:1043D0008070E16E0860D4E91C104860012084F808
:1043E000350000BF002084F8340000BF206D10B1FC
:1043F0002046216D884700203EE600001000024064
:1044000010040240085402580146486D70470000ED
:104410002DE9F84F044600200090FE4800684FF454
:104420001651B0FBF1FAA66DD4F858803768D8F869
:104430000090F9492068884249D0F749183120682E
:10444000884244D0F4493031206888423FD0F24954
:104450004831206888423AD0EF496031206888426C
:1044600035D0ED4978312068884230D0EA49903122
:10447000206888422BD0E849A8312068884226D09D
:10448000E6492068884222D0E449183120688842F1
:104490001DD0E24930312068884218D0DF494831C8
:1044A0002068884213D0DD496031206888420ED0F0
:1044B000DA4978312068884209D0D849903120689B
:1044C000884204D0D549A8312068884201D1012012
:1044D00000E0002000287DD094F85C0000F01F016F
:1044E000082088403840002868D0CB49206888429E
:1044F00049D0C94918312068884244D0C649303172
:10450000206888423FD0C4494831206888423AD068
:10451000C14960312068884235D0BF497831206870
:10452000884230D0BC499031206888422BD0BA49AB
:10453000A8312068884226D0B8492068884222D015
:10454000B6491831206888421DD0B44930312068FE
:10455000884218D0B14948312068884213D0AF4909
:104560006031206888420ED0AC497831206888429A
:1045700009D0AA4990312068884204D0A749A831BF
:104580002068884204D12068006800F0040003E03D
:104590002068006800F0080080B12068006820F002
:1045A00004002168086094F85C0000F01F010820F6
:1045B0008840B060606D40F00100606594F85C0078
:1045C00000F01F01012088403840E8B3924920687C
:1045D000884200E0B7E24BD08F491831206888420A
:1045E00046D08D4930312068884241D08A494831CF
:1045F000206888423CD0884960312068884237D0A2
:10460000854978312068884232D0834990312068CA
:1046100088422DD08049A8312068884228D07F491F
:104620002068884224D07D491831206888421FD0F4
:104630007A493031206888421AD078494831206858
:10464000884215D0754900E026E060312068884234
:104650000ED0724978312068884209D06F49903174
:104660002068884204D06D49A8312068884204D16E
:104670002068406900F0800002E0206800680020A7
:1046800050B194F85C0000F01F0101208840B06038
:10469000606D40F00200606594F85C0000F01F015E
:1046A000042088403840E8B35B49206888424BD0FA
:1046B000594918312068884246D05749303120681E
:1046C000884241D054494831206888423CD0524900
:1046D00060312068884237D04F497831206888425D
:1046E00032D04D499031206888422DD04A49A831B6
:1046F0002068884228D049492068884224D0474908
:104700001831206888421FD04449303120688842DF
:104710001AD0424948312068884215D03F4960315B
:10472000206800E024E088420ED03C4978312068BF
:10473000884209D0394990312068884204D03749ED
:10474000A8312068884204D12068006800F0020087
:1047500002E020680068002050B194F85C0000F08E
:104760001F0104208840B060606D40F00400606567
:1047700094F85C0000F01F01102088403840E8B336
:1047800025492068884251D0234918312068884241
:104790004CD0214930312068884247D01E494831E9
:1047A0002068884242D01C496031206888423DD050
:1047B000194978312068884238D0174990312068EB
:1047C000884233D01449A831206888422ED013493A
:1047D000206888422AD0114918312068884225D0A3
:1047E0000E4930312068884220D00C494831206879
:1047F00088421BD009496031206800E04DE08842C2
:1048000014D006497831206888420FD0034990318E
:10481000206805E02000002410000240100402403F
:10482000884203D0FE492068884204D1206800688D
:1048300000F0080003E02068006800F0040060B3A6
:1048400094F85C0000F01F0110208840B0602068E0
:10485000006800F4802080B12068006800F4002027
:1048600028B9206CC8B12046216C884715E0A06C9F
:1048700098B12046A16C88470FE02068006800F4DA
:10488000807028B92068006820F00800216808605E
:10489000206C10B12046216C884794F85C0000F031
:1048A0001F0120208840384000287DD0DD49206845
:1048B000884249D0DB4918312068884244D0D94920
:1048C0003031206888423FD0D6494831206888423C
:1048D0003AD0D44960312068884235D0D149783106
:1048E0002068884230D0CF499031206888422BD050
:1048F000CC49A8312068884226D0C949A839206807
:10490000884221D0C6499039206888421CD0C449C9
:1049100078392068884217D0C149603920688842B8
:1049200012D0BF494839206888420DD0BC4930397F
:104930002068884208D0BA4918392068884203D0D4
:10494000B7492068884204D12068006800F0100050
:1049500003E02068006800F0020028B394F85C00CF
:1049600000F01F0120208840B06094F83500042832
:104970002DD12068006820F01600216808602068AA
:10498000406920F0800021684861206C08B9A06C63
:1049900028B12068006820F008002168086094F8B9
:1049A0005C0000F01F0100E03FE03F208840B06065
:1049B000012084F8350000BF002084F8340000BFD7
:1049C000206D10B12046216D8847BDE8F88F206822
:1049D000006800F4802080B12068006800F40020A6
:1049E00028B1606C08B32046616C88471DE0E06B1D
:1049F000D8B12046E16B884717E02068006800F4D2
:104A0000807068B92068006820F010002168086094
:104A1000012084F8350000BF002084F8340000BF76
:104A2000E06B10B12046E16B8847606D00287AD0BA
:104A3000606D00F00100E8B3042084F83500794986
:104A4000206888424BD0774918312068884246D088
:104A5000744930312068884241D072494831206819
:104A600088423CD06F4960312068884237D06D4918
:104A700078312068884232D06A4990312068884273
:104A80002DD06849A8312068884228D06449A839C7
:104A90002068884223D062499039206888421ED01D
:104AA0005F4978392068884219D05D4960392068AB
:104AB000884200E040E012D05949483920688842D5
:104AC0000DD0574930392068884208D054491839E8
:104AD0002068884203D052492068884206D1206865
:104AE000006820F001002168086005E02068006887
:104AF00020F001002168086000BF0098401C009071
:104B0000504500D905E02068006800F00100002849
:104B1000F3D100BF2068006800F0010020B103203D
:104B200084F8350003E00DE0012084F8350000BF73
:104B3000002084F8340000BFE06C002802D020463A
:104B4000E16C8847D9E138492068884222D036494B
:104B50001431206888421DD03349283120688842AA
:104B600018D031493C312068884213D02E49503149
:104B7000206888420ED02C4964312068884209D0D0
:104B8000294978312068884204D027498C3120682F
:104B9000884201D1012000E000200028D2D0206806
:104BA000056894F85C0000F01F010420884000EACA
:104BB0000900D8B305F00400C0B394F85C0000F01D
:104BC0001F0104208840C8F8040005F4004080B1AB
:104BD00005F4803030B1A06C0028B3D02046A16C21
:104BE00088478AE1206C0028ACD02046216C884799
:104BF00083E105F02000E8BB0A492068884253D0D1
:104C000008491831206888424ED006493031206862
:104C1000884249D0034948312068884244D006E0A0
:104C2000B804024010000240085402584FE0B44952
:104C300060312068884237D0B14978312068884295
:104C400032D0AF499031206888422DD0AC49A8318C
:104C50002068884228D0AB492068884224D0A949DE
:104C60001831206888421FD0A64930312068884218
:104C70001AD000E025E0A34948312068884213D0CB
:104C8000A0496031206888420ED09E497831206862
:104C9000884209D09B4990312068884204D09949C4
:104CA000A8312068884206D12068006820F00800FA
:104CB0002168086005E02068006820F00400216891
:104CC0000860206C10B32046216C884715E194F8E9
:104CD0005C0000F01F010220884000EA0900E8B3F0
:104CE00005F00200D0B394F85C0000F01F01022030
:104CF0008840C8F8040005F4004070B105F4803025
:104D000028B9606C10B12046616C8847F5E0E06B13
:104D1000F0B32046E16B8847EFE005F02000C0BB10
:104D20007749206888424ED07549183120688842FA
:104D300049D0734930312068884244D070494831A5
:104D4000206888423FD06E496031206888423AD05E
:104D50006B4978312068884235D000E04EE06849E0
:104D60009031206888422ED06549A8312068884259
:104D700029D064492068884225D0624918312068CA
:104D8000884220D05F493031206888421BD001E042
:104D90006EE02DE05B4948312068884213D05949C4
:104DA0006031206888420ED05649783120688842A8
:104DB00009D0544990312068884204D05149A83123
:104DC0002068884206D12068006820F0140021681D
:104DD000086005E02068006820F00A00216808608B
:104DE000012084F8350000BF002084F8340000BFA3
:104DF000E06BE8B32046E16B88477EE094F85C0006
:104E000000F01F010820884000EA090080B305F087
:104E1000080068B33A49206888424BD038491831B5
:104E20002068884246D0364930312068884241D0D7
:104E300033494831206888423CD03149603120688C
:104E4000884237D02E4978312068884232D02C49A8
:104E50009031206888422DD02949A83120688842A5
:104E600028D028492068884224D02649183100E0FB
:104E700043E0206888421DD02249303120688842B2
:104E800018D0204948312068884213D01D4960312C
:104E9000206888420ED01B4978312068884209D0AA
:104EA000184990312068884204D01649A8312068FA
:104EB000884206D12068006820F01C002168086044
:104EC00005E02068006820F00E002168086094F872
:104ED0005C0000F01F0101208840C8F80400012098
:104EE000606584F8350000BF002084F8340000BFFE
:104EF000E06C10B12046E16C884700BF65E500001A
:104F000010000240100402402DE9F041044601F077
:104F1000A1FB804614B90120BDE8F081FE4920685C
:104F2000884249D0FC4918312068884244D0FA4967
:104F30003031206888423FD0F749483120688842A4
:104F40003AD0F54960312068884235D0F24978314D
:104F50002068884230D0F0499031206888422BD0B8
:104F6000ED49A8312068884226D0EC492068884263
:104F700022D0EA491831206888421DD0E7493031F3
:104F80002068884218D0E54948312068884213D00B
:104F9000E2496031206888420ED0E04978312068CB
:104FA000884209D0DD4990312068884204D0DB492D
:104FB000A8312068884201D1012000E000200028AB
:104FC00073D0606A00B100BF022084F8350000BFD2
:104FD000002084F8340000BFCF492068884249D0BF
:104FE000CD4918312068884244D0CB4930312068FF
:104FF00088423FD0C8494831206888423AD0C649E3
:1050000060312068884235D0C349783120688842B1
:1050100030D0C1499031206888422BD0BE49A83198
:105020002068884226D0BD492068884222D0BB49EA
:105030001831206888421DD0B84930312068884234
:1050400018D0B64948312068884213D0B34960313E
:10505000206888420ED0B14978312068884209D052
:10506000AE4990312068884204D0AC49A83120680C
:10507000884206D12068006820F00100216808609D
:1050800005E02068006820F00100216808600DE05C
:1050900001F0E0FAA0EB0800052807D920206065A0
:1050A000032084F83500012036E769E020680068B5
:1050B00000F001000028EBD1206805689848054001
:1050C000D4E9020108432169084361690843A169E1
:1050D0000843E1690843216A08430543606A0428DC
:1050E00003D1D4E90B01084305436068292802D3A2
:1050F00060682E2817D960683F2802D3606842286C
:1051000011D96068472802D3606848280BD96068C5
:105110004F2802D36068522805D96068742804D3E8
:105120006068772801D8012000E0002008B145F42C
:105130008015206805602068456925F00705606ACC
:105140000543606A04280DD1A06A0543E06A48B1AE
:105150002046FDF7AFFD28B140206065012084F8AE
:105160003500D9E6206845612046FDF77FFC0646FC
:1051700094F85C0000F01F013F208840B0609EE082
:1051800068492068884222D06649143120688842E4
:105190001DD0644928312068884218D061493C31CB
:1051A0002068884213D05F495031206888420ED071
:1051B0005C4964312068884209D05A4978312068B6
:1051C000884204D057498C312068884201D101209F
:1051D00000E00020E0B353492068884222D05149C2
:1051E0001431206888421DD04E49283120688842F9
:1051F00018D04C493C312068884213D0494950317D
:10520000206888420ED0474964312068884209D01E
:10521000444978312068884204D042498C31206862
:10522000884201D1012000E0002000B100BF02202F
:1052300084F8350000BF002084F8340000BF2068E7
:10524000056839480540A068402802D1102106E0D1
:105250002EE0A068802801D1C10100E00021E068B3
:1052600041EAD001206941EAD001606941EAD001F8
:10527000A06941EAD001E06941EAD001206A41EA2F
:10528000101005432068056026492068401A142143
:10529000B0FBF1F08000E0652046FDF7E7FB074634
:1052A00094F85C0000F01F0101208840786006E05F
:1052B00040206065032084F8350001202CE6164963
:1052C000206888427AD0144918312068884275D005
:1052D000114930312068884270D00F494831206828
:1052E00088426BD00C4960312068884266D00A49F8
:1052F00078312068884261D007499031206888421F
:105300005CD00549A8312068884257D003492068FD
:10531000884253D0014909E01000024010040240C5
:105320003F8010FE085402580F00FEFF183120681D
:10533000884243D03749206888423FD035491831E8
:10534000206888423AD0334930312068884235D0CD
:10535000304948312068884230D02E496031206879
:1053600088422BD02B4978312068884226D02A49A0
:105370002068884222D028491431206888421DD0F4
:10538000254928312068884218D023493C312068BB
:10539000884213D020495031206888420ED01E49DF
:1053A00064312068884209D01B49783120688842DE
:1053B00004D019498C312068884201D1012000E0D5
:1053C000002000B32046FDF7C7FBA068802801D16C
:1053D000002060602079216E0860D4E919104860CF
:1053E000606860B16068082809D82046FDF716FC9F
:1053F0000020E16E0860D4E91C10486003E0002042
:10540000E0662067606700206065012084F8350051
:10541000002081E5400402400854025870B504465B
:1054200001F018F906462546681C10B104480078BA
:10543000054400BF01F00EF9801BA842FAD370BDED
:105440001C00002430B5034693F89840012C01D08D
:10545000022C3ED11868806D084030B91868C06DC4
:1054600040F001001D68E8650EE01868806D084096
:10547000884206D11868C06D40F002001D68E865DA
:1054800002E003201D68E86501F4007030B118687F
:10549000D0F8E00010431D68C5F8E00001F480601A
:1054A00030B11868D0F8E40010431D68C5F8E40076
:1054B00000BF1868406D0B4D0D4028431D6868659E
:1054C0000948006840EA9170074D286000BF00203D
:1054D00030BDD3F89C0040F00200C3F89C000120CE
:1054E000F6E70000FFFFCF3F14A800402DE9F04190
:1054F00004460E461746706800B900E000BF94F8F5
:105500009800022832D12068D0F8C00000F07C500A
:1055100040B9D4F89C0040F02000C4F89C00012061
:10552000BDE8F0812068D0F8C40000F4001038B164
:10553000D4F89C0040F40070C4F89C000120EFE710
:105540002068D0F8C400C0F304452B463A463146E3
:105550002046FEF70DF90120A8402168C1F8D000CF
:105560000120A840C4F894000020D9E7D4F89C009A
:1055700040F00800C4F89C000120D1E77047F0B566
:10558000024692F89860012E01D0022E43D1C868DD
:10559000072800D100BF086818BBC868072800D0DA
:1055A00000BFC86807280BD1088A4FF0605747EA48
:1055B0000040CF6940EA07208F6940EA07030AE00C
:1055C000087A80070F7B40EAC7600F8A40EA0740ED
:1055D0004F6940EA0703D76E486807EB80042360F1
:1055E00017E0C868072800D000BF0F7B086940EAB1
:1055F0004773C868072801D18D6903E00F7A4869AD
:1056000040EA8775176F486807EBC0042360241DC4
:1056100025600020F0BDD2F89C0040F00200C2F8E6
:105620009C000120F6E770B50446049D94F89800AC
:1056300001280AD1080140EA820040EA43002843D9
:105640002668C6F88000002070BDD4F89C0040F0A9
:105650000400C4F89C000120F6E770470E4B026876
:105660009A4205D10D4A12680A430C4B1A6012E0A7
:105670000B4B02689A4205D10A4A12680A43094B49
:105680001A6008E0084B02689A4204D1074A12687F
:105690000A43064B1A60704700A000400C0100242A
:1056A00000A400401001002400D400401401002494
:1056B0002DE9F04304460D469C46002394F898805B
:1056C000B8F1020F7ED1402D3FD12068D0F8A00064
:1056D00000F4FE0040B9D4F89C0040F02000C4F86B
:1056E0009C000120BDE8F0832068D0F8A40000F001
:1056F0007F0038B9D4F89C0040F48070C4F89C0056
:105700000120EFE72068D0F8A400C0F3052320684B
:10571000D0F8A400C0F3006080B12068D0F8A000E9
:105720004FF00109B9EBD07F08D12068D0F8A00074
:10573000C0F3064003F1010900EA0903606C584315
:10574000D4F8749009EB800153E0412D40D12068DA
:10575000D0F8B00000F4FE0038B9D4F89C0040F056
:105760002000C4F89C000120BCE72068D0F8B400F9
:1057700000F07F0038B9D4F89C0040F48070C4F881
:105780009C000120AEE72068D0F8B400C0F30523E8
:105790002068D0F8B400C0F3006080B12068D0F871
:1057A000B0004FF00109B9EBD07F08D12068D0F8E4
:1057B000B000C0F3064003F1010900EA0903E06C00
:1057C000584300E072E0D4F8789009EB800110E0D3
:1057D000206DA84207D8D4F89C0040F02000C4F8FF
:1057E0009C0001207EE7606D6843D4F87C9009EB53
:1057F0008001086800F080405060506820B9086857
:10580000C0F38A40106003E0086820F06040106038
:10581000086800F000509060086800F000401061D7
:10582000091D088880B2D0610868C0F30340D060C9
:10583000086800F480105061086800F4001090615E
:105840000868C0F3066010620868C00F5062091D46
:105850000F46002603E0B85D0CF80600761CDFF862
:105860005C90D06819F80000B042F4D8402D03D104
:105870002068C0F8A83017E0412D03D12068C0F897
:10588000B83011E0202D06D20120A840D4F80090B5
:10589000C9F8980008E005F01F09012000FA09F096
:1058A000D4F80090C9F89C0000201BE7D4F89C00B5
:1058B00040F00800C4F89C00012013E700AF010885
:1058C00001460A68D2F8C42002F03F0070477047D2
:1058D0002DE9F04F8DB00446EF4800688707EE4889
:1058E000001D006807EA80772068006D00F47048AA
:1058F0002068406D00EA08082068006D00F00F097C
:105900002068406D00EA09092068006D00F0F00A87
:105910002068406D00EA0A0A2068006D00F0715BA3
:105920002068406D00EA0B0B2068006D00F060708D
:105930000C902068406D0C9908400C902068456DD3
:105940002068066DC5F3002070B1C6F3002058B181
:1059500000BF4FF48070216808650020CE490860C0
:1059600000BF2046FFF7B3FFC5F38020C8B1C6F3E0
:105970008020B0B12068D0F8DC000A902068D0F810
:10598000E4000A9908400A9000BF4FF48060216843
:1059900008650020C049086000BF20460A9900F051
:1059A00049FD67B100BFBD48384021680865B80FA0
:1059B000B949086000BF39462046FFF7DFFDB8F15E
:1059C000000F0ED000BFB54808EA00002168086546
:1059D0004FEA9870B049086000BF4146204600F089
:1059E0002BFDB9F1000F0ED000BFAC4809EA000052
:1059F000216808654FEA9970A749086000BF4946C9
:105A0000204600F0C7FBBAF1000F0ED000BFA3483C
:105A10000AEA0000216808654FEA9A709E4908600A
:105A200000BF5146204600F093FCC5F3C02070B182
:105A3000C6F3C02058B100BF4FF40060216808656C
:105A400000209549086000BF204600F0F6FCC5F331
:105A50004020C8B1C6F34020B0B12068D0F8D800CB
:105A60000B902068D0F8E0000B9908400B9000BF25
:105A70004FF400702168086500208749086000BF66
:105A800020460B9900F0D7FCC5F3C04070B1C6F3B7
:105A9000C04058B100BF4FF40020216808650020C5
:105AA0007D49086000BF204600F072FBC5F300404E
:105AB00070B1C6F3004058B100BF4FF48030216888
:105AC000086500207449086000BF204600F0B1FC62
:105AD000C5F3804070B1C6F3804058B100BF4FF4A9
